{
  "address": "0x70e0bA845a1A0F2DA3359C97E0285013525FFC49",
  "abi": [
    {
      "inputs": [],
      "stateMutability": "nonpayable",
      "type": "constructor"
    },
    {
      "anonymous": false,
      "inputs": [
        {
          "indexed": true,
          "internalType": "address",
          "name": "_owner",
          "type": "address"
        },
        {
          "indexed": true,
          "internalType": "address",
          "name": "_spender",
          "type": "address"
        },
        {
          "indexed": false,
          "internalType": "uint256",
          "name": "_value",
          "type": "uint256"
        }
      ],
      "name": "Approval",
      "type": "event"
    },
    {
      "anonymous": false,
      "inputs": [
        {
          "indexed": false,
          "internalType": "address",
          "name": "rep",
          "type": "address"
        },
        {
          "indexed": false,
          "internalType": "address",
          "name": "upline",
          "type": "address"
        }
      ],
      "name": "MLMAddRep",
      "type": "event"
    },
    {
      "anonymous": false,
      "inputs": [
        {
          "indexed": false,
          "internalType": "address",
          "name": "rep",
          "type": "address"
        },
        {
          "indexed": false,
          "internalType": "uint128",
          "name": "amount",
          "type": "uint128"
        },
        {
          "indexed": false,
          "internalType": "uint8",
          "name": "lvl",
          "type": "uint8"
        }
      ],
      "name": "MLMEarn",
      "type": "event"
    },
    {
      "anonymous": false,
      "inputs": [
        {
          "indexed": true,
          "internalType": "address",
          "name": "previousOwner",
          "type": "address"
        },
        {
          "indexed": true,
          "internalType": "address",
          "name": "newOwner",
          "type": "address"
        }
      ],
      "name": "OwnershipTransferred",
      "type": "event"
    },
    {
      "anonymous": false,
      "inputs": [
        {
          "indexed": true,
          "internalType": "address",
          "name": "_from",
          "type": "address"
        },
        {
          "indexed": true,
          "internalType": "address",
          "name": "_to",
          "type": "address"
        },
        {
          "indexed": false,
          "internalType": "uint256",
          "name": "_value",
          "type": "uint256"
        }
      ],
      "name": "Transfer",
      "type": "event"
    },
    {
      "inputs": [],
      "name": "DOMAIN_SEPARATOR",
      "outputs": [
        {
          "internalType": "bytes32",
          "name": "",
          "type": "bytes32"
        }
      ],
      "stateMutability": "view",
      "type": "function"
    },
    {
      "inputs": [],
      "name": "LOCK_TIMESTAMP",
      "outputs": [
        {
          "internalType": "uint256",
          "name": "",
          "type": "uint256"
        }
      ],
      "stateMutability": "view",
      "type": "function"
    },
    {
      "inputs": [],
      "name": "START_TIMESTAMP",
      "outputs": [
        {
          "internalType": "uint256",
          "name": "",
          "type": "uint256"
        }
      ],
      "stateMutability": "view",
      "type": "function"
    },
    {
      "inputs": [
        {
          "internalType": "address",
          "name": "",
          "type": "address"
        },
        {
          "internalType": "address",
          "name": "",
          "type": "address"
        }
      ],
      "name": "allowance",
      "outputs": [
        {
          "internalType": "uint256",
          "name": "",
          "type": "uint256"
        }
      ],
      "stateMutability": "view",
      "type": "function"
    },
    {
      "inputs": [
        {
          "internalType": "address",
          "name": "spender",
          "type": "address"
        },
        {
          "internalType": "uint256",
          "name": "amount",
          "type": "uint256"
        }
      ],
      "name": "approve",
      "outputs": [
        {
          "internalType": "bool",
          "name": "",
          "type": "bool"
        }
      ],
      "stateMutability": "nonpayable",
      "type": "function"
    },
    {
      "inputs": [
        {
          "internalType": "address",
          "name": "",
          "type": "address"
        }
      ],
      "name": "balanceOf",
      "outputs": [
        {
          "internalType": "uint256",
          "name": "",
          "type": "uint256"
        }
      ],
      "stateMutability": "view",
      "type": "function"
    },
    {
      "inputs": [
        {
          "internalType": "bytes[]",
          "name": "calls",
          "type": "bytes[]"
        },
        {
          "internalType": "bool",
          "name": "revertOnFail",
          "type": "bool"
        }
      ],
      "name": "batch",
      "outputs": [],
      "stateMutability": "payable",
      "type": "function"
    },
    {
      "inputs": [
        {
          "internalType": "uint256",
          "name": "",
          "type": "uint256"
        }
      ],
      "name": "blk",
      "outputs": [
        {
          "internalType": "address",
          "name": "owner",
          "type": "address"
        },
        {
          "internalType": "uint128",
          "name": "lastPrice",
          "type": "uint128"
        },
        {
          "internalType": "uint32",
          "name": "link",
          "type": "uint32"
        },
        {
          "internalType": "bytes",
          "name": "pixels",
          "type": "bytes"
        }
      ],
      "stateMutability": "view",
      "type": "function"
    },
    {
      "inputs": [],
      "name": "canvas",
      "outputs": [
        {
          "internalType": "address",
          "name": "",
          "type": "address"
        }
      ],
      "stateMutability": "view",
      "type": "function"
    },
    {
      "inputs": [],
      "name": "claimOwnership",
      "outputs": [],
      "stateMutability": "nonpayable",
      "type": "function"
    },
    {
      "inputs": [],
      "name": "decimals",
      "outputs": [
        {
          "internalType": "uint8",
          "name": "",
          "type": "uint8"
        }
      ],
      "stateMutability": "view",
      "type": "function"
    },
    {
      "inputs": [
        {
          "internalType": "address",
          "name": "",
          "type": "address"
        }
      ],
      "name": "downline",
      "outputs": [
        {
          "internalType": "uint128",
          "name": "earnings1",
          "type": "uint128"
        },
        {
          "internalType": "uint128",
          "name": "earnings2",
          "type": "uint128"
        },
        {
          "internalType": "uint128",
          "name": "earnings3",
          "type": "uint128"
        },
        {
          "internalType": "uint32",
          "name": "tier1",
          "type": "uint32"
        },
        {
          "internalType": "uint32",
          "name": "tier2",
          "type": "uint32"
        },
        {
          "internalType": "uint32",
          "name": "tier3",
          "type": "uint32"
        }
      ],
      "stateMutability": "view",
      "type": "function"
    },
    {
      "inputs": [
        {
          "internalType": "uint256[]",
          "name": "blockNumbers",
          "type": "uint256[]"
        }
      ],
      "name": "getBlocks",
      "outputs": [
        {
          "components": [
            {
              "internalType": "uint32",
              "name": "number",
              "type": "uint32"
            },
            {
              "internalType": "address",
              "name": "owner",
              "type": "address"
            },
            {
              "internalType": "uint128",
              "name": "lastPrice",
              "type": "uint128"
            },
            {
              "internalType": "string",
              "name": "url",
              "type": "string"
            },
            {
              "internalType": "string",
              "name": "description",
              "type": "string"
            },
            {
              "internalType": "bytes",
              "name": "pixels",
              "type": "bytes"
            }
          ],
          "internalType": "struct Pixel.ExportBlock[]",
          "name": "blocks",
          "type": "tuple[]"
        }
      ],
      "stateMutability": "view",
      "type": "function"
    },
    {
      "inputs": [
        {
          "internalType": "uint256",
          "name": "blockNumber",
          "type": "uint256"
        }
      ],
      "name": "getCost",
      "outputs": [
        {
          "internalType": "uint256",
          "name": "cost",
          "type": "uint256"
        }
      ],
      "stateMutability": "view",
      "type": "function"
    },
    {
      "inputs": [
        {
          "internalType": "uint256[]",
          "name": "blockNumbers",
          "type": "uint256[]"
        }
      ],
      "name": "getCost",
      "outputs": [
        {
          "internalType": "uint256",
          "name": "cost",
          "type": "uint256"
        }
      ],
      "stateMutability": "view",
      "type": "function"
    },
    {
      "inputs": [
        {
          "internalType": "uint256",
          "name": "since",
          "type": "uint256"
        },
        {
          "internalType": "uint256",
          "name": "max",
          "type": "uint256"
        }
      ],
      "name": "getUpdates",
      "outputs": [
        {
          "internalType": "uint256[]",
          "name": "updatesSince",
          "type": "uint256[]"
        }
      ],
      "stateMutability": "view",
      "type": "function"
    },
    {
      "inputs": [
        {
          "internalType": "uint256",
          "name": "",
          "type": "uint256"
        }
      ],
      "name": "link",
      "outputs": [
        {
          "internalType": "string",
          "name": "url",
          "type": "string"
        },
        {
          "internalType": "string",
          "name": "description",
          "type": "string"
        }
      ],
      "stateMutability": "view",
      "type": "function"
    },
    {
      "inputs": [],
      "name": "mintCanvas",
      "outputs": [],
      "stateMutability": "nonpayable",
      "type": "function"
    },
    {
      "inputs": [],
      "name": "name",
      "outputs": [
        {
          "internalType": "string",
          "name": "",
          "type": "string"
        }
      ],
      "stateMutability": "view",
      "type": "function"
    },
    {
      "inputs": [
        {
          "internalType": "address",
          "name": "",
          "type": "address"
        }
      ],
      "name": "nonces",
      "outputs": [
        {
          "internalType": "uint256",
          "name": "",
          "type": "uint256"
        }
      ],
      "stateMutability": "view",
      "type": "function"
    },
    {
      "inputs": [],
      "name": "owner",
      "outputs": [
        {
          "internalType": "address",
          "name": "",
          "type": "address"
        }
      ],
      "stateMutability": "view",
      "type": "function"
    },
    {
      "inputs": [],
      "name": "pendingOwner",
      "outputs": [
        {
          "internalType": "address",
          "name": "",
          "type": "address"
        }
      ],
      "stateMutability": "view",
      "type": "function"
    },
    {
      "inputs": [
        {
          "internalType": "address",
          "name": "owner_",
          "type": "address"
        },
        {
          "internalType": "address",
          "name": "spender",
          "type": "address"
        },
        {
          "internalType": "uint256",
          "name": "value",
          "type": "uint256"
        },
        {
          "internalType": "uint256",
          "name": "deadline",
          "type": "uint256"
        },
        {
          "internalType": "uint8",
          "name": "v",
          "type": "uint8"
        },
        {
          "internalType": "bytes32",
          "name": "r",
          "type": "bytes32"
        },
        {
          "internalType": "bytes32",
          "name": "s",
          "type": "bytes32"
        }
      ],
      "name": "permit",
      "outputs": [],
      "stateMutability": "nonpayable",
      "type": "function"
    },
    {
      "inputs": [
        {
          "internalType": "contract IERC20",
          "name": "token",
          "type": "address"
        },
        {
          "internalType": "address",
          "name": "from",
          "type": "address"
        },
        {
          "internalType": "address",
          "name": "to",
          "type": "address"
        },
        {
          "internalType": "uint256",
          "name": "amount",
          "type": "uint256"
        },
        {
          "internalType": "uint256",
          "name": "deadline",
          "type": "uint256"
        },
        {
          "internalType": "uint8",
          "name": "v",
          "type": "uint8"
        },
        {
          "internalType": "bytes32",
          "name": "r",
          "type": "bytes32"
        },
        {
          "internalType": "bytes32",
          "name": "s",
          "type": "bytes32"
        }
      ],
      "name": "permitToken",
      "outputs": [],
      "stateMutability": "nonpayable",
      "type": "function"
    },
    {
      "inputs": [
        {
          "internalType": "address",
          "name": "user",
          "type": "address"
        }
      ],
      "name": "poll",
      "outputs": [
        {
          "internalType": "uint256",
          "name": "updates_",
          "type": "uint256"
        },
        {
          "internalType": "uint256",
          "name": "balance",
          "type": "uint256"
        },
        {
          "internalType": "uint256",
          "name": "supply",
          "type": "uint256"
        },
        {
          "internalType": "address",
          "name": "upline_",
          "type": "address"
        },
        {
          "components": [
            {
              "internalType": "uint128",
              "name": "earnings1",
              "type": "uint128"
            },
            {
              "internalType": "uint128",
              "name": "earnings2",
              "type": "uint128"
            },
            {
              "internalType": "uint128",
              "name": "earnings3",
              "type": "uint128"
            },
            {
              "internalType": "uint32",
              "name": "tier1",
              "type": "uint32"
            },
            {
              "internalType": "uint32",
              "name": "tier2",
              "type": "uint32"
            },
            {
              "internalType": "uint32",
              "name": "tier3",
              "type": "uint32"
            }
          ],
          "internalType": "struct MLM.DownlineStats",
          "name": "downline_",
          "type": "tuple"
        }
      ],
      "stateMutability": "view",
      "type": "function"
    },
    {
      "inputs": [
        {
          "internalType": "uint256[]",
          "name": "blockNumbers",
          "type": "uint256[]"
        },
        {
          "internalType": "uint32",
          "name": "linkNumber",
          "type": "uint32"
        },
        {
          "internalType": "bytes[]",
          "name": "pixels",
          "type": "bytes[]"
        },
        {
          "internalType": "address",
          "name": "referrer",
          "type": "address"
        }
      ],
      "name": "setBlocks",
      "outputs": [],
      "stateMutability": "payable",
      "type": "function"
    },
    {
      "inputs": [
        {
          "internalType": "uint256[]",
          "name": "blockNumbers",
          "type": "uint256[]"
        },
        {
          "internalType": "string",
          "name": "url",
          "type": "string"
        },
        {
          "internalType": "string",
          "name": "description",
          "type": "string"
        },
        {
          "internalType": "bytes[]",
          "name": "pixels",
          "type": "bytes[]"
        },
        {
          "internalType": "address",
          "name": "referrer",
          "type": "address"
        }
      ],
      "name": "setBlocks",
      "outputs": [
        {
          "internalType": "uint32",
          "name": "linkNumber",
          "type": "uint32"
        }
      ],
      "stateMutability": "payable",
      "type": "function"
    },
    {
      "inputs": [],
      "name": "symbol",
      "outputs": [
        {
          "internalType": "string",
          "name": "",
          "type": "string"
        }
      ],
      "stateMutability": "view",
      "type": "function"
    },
    {
      "inputs": [],
      "name": "totalSupply",
      "outputs": [
        {
          "internalType": "uint256",
          "name": "",
          "type": "uint256"
        }
      ],
      "stateMutability": "view",
      "type": "function"
    },
    {
      "inputs": [
        {
          "internalType": "address",
          "name": "to",
          "type": "address"
        },
        {
          "internalType": "uint256",
          "name": "amount",
          "type": "uint256"
        }
      ],
      "name": "transfer",
      "outputs": [
        {
          "internalType": "bool",
          "name": "",
          "type": "bool"
        }
      ],
      "stateMutability": "nonpayable",
      "type": "function"
    },
    {
      "inputs": [
        {
          "internalType": "address",
          "name": "from",
          "type": "address"
        },
        {
          "internalType": "address",
          "name": "to",
          "type": "address"
        },
        {
          "internalType": "uint256",
          "name": "amount",
          "type": "uint256"
        }
      ],
      "name": "transferFrom",
      "outputs": [
        {
          "internalType": "bool",
          "name": "",
          "type": "bool"
        }
      ],
      "stateMutability": "nonpayable",
      "type": "function"
    },
    {
      "inputs": [
        {
          "internalType": "address",
          "name": "newOwner",
          "type": "address"
        },
        {
          "internalType": "bool",
          "name": "direct",
          "type": "bool"
        },
        {
          "internalType": "bool",
          "name": "renounce",
          "type": "bool"
        }
      ],
      "name": "transferOwnership",
      "outputs": [],
      "stateMutability": "nonpayable",
      "type": "function"
    },
    {
      "inputs": [
        {
          "internalType": "uint256",
          "name": "",
          "type": "uint256"
        }
      ],
      "name": "updates",
      "outputs": [
        {
          "internalType": "uint256",
          "name": "",
          "type": "uint256"
        }
      ],
      "stateMutability": "view",
      "type": "function"
    },
    {
      "inputs": [],
      "name": "updatesCount",
      "outputs": [
        {
          "internalType": "uint256",
          "name": "",
          "type": "uint256"
        }
      ],
      "stateMutability": "view",
      "type": "function"
    },
    {
      "inputs": [
        {
          "internalType": "address",
          "name": "",
          "type": "address"
        }
      ],
      "name": "upline",
      "outputs": [
        {
          "internalType": "address",
          "name": "",
          "type": "address"
        }
      ],
      "stateMutability": "view",
      "type": "function"
    },
    {
      "inputs": [
        {
          "internalType": "contract IERC20",
          "name": "token",
          "type": "address"
        }
      ],
      "name": "withdraw",
      "outputs": [],
      "stateMutability": "nonpayable",
      "type": "function"
    },
    {
      "stateMutability": "payable",
      "type": "receive"
    }
  ],
  "transactionHash": "0xa45ae07cd1c85a007cd883c81b6d68a651be19d87bcf039520799b11ddcaf562",
  "args": [],
  "solcInputHash": "e166775afbaa610c5b3c79c8bf26f890",
  "bytecode": "0x60c06040523480156200001157600080fd5b504660a08190526200002381620000f9565b60805250600680546001600160a01b031916339081179091556040516000907f8be0079c531659141344cd1fd0a4f28419497f9722a3daafe3b4186f6b6457e0908290a36040805160608101825260008183018181528252825160208181019094528181528383015260098054600181018255915281518051929360029092027f6e1540171b6c0c960b71a7020d9f60077f6af931a8bbf590da0223dacf75c7af0192620000d592849201906200014f565b506020828101518051620000f092600185019201906200014f565b5050506200020a565b60007f47e79534a245952e8b16893a336b85a3d9ea9fa8c573f3d803afb92a7946921882306040516020016200013293929190620001eb565b604051602081830303815290604052805190602001209050919050565b828054600181600116156101000203166002900490600052602060002090601f016020900481019282601f106200019257805160ff1916838001178555620001c2565b82800160010185558215620001c2579182015b82811115620001c2578251825591602001919060010190620001a5565b50620001d0929150620001d4565b5090565b5b80821115620001d05760008155600101620001d5565b92835260208301919091526001600160a01b0316604082015260600190565b60805160a051614ac06200022e600039806120835250806120bc5250614ac06000f3fe608060405260043610620002475760003560e01c8063781cd99d1162000133578063a9059cbb11620000af578063d505accf1162000079578063d505accf14620006e1578063dd62ed3e1462000706578063e30c3978146200072b578063e7054e5b1462000743578063ee687c751462000769576200024f565b8063a9059cbb146200064b578063b1a867d51462000670578063b4c2f72714620006a5578063d2423b5114620006ca576200024f565b80638da5cb5b11620000fd5780638da5cb5b14620005b357806395d89b4114620005cb5780639829a53214620005e35780639b8e9b5e14620005fa5780639ee6bd821462000612576200024f565b8063781cd99d146200051a5780637b46a39c14620005325780637c516e9414620005695780637ecebe00146200058e576200024f565b80633644e51511620001c357806354328c0e116200018d57806354328c0e14620004435780635a4dd47d1462000477578063697f92f4146200049c5780636ac1c5a614620004c157806370a0823114620004f5576200024f565b80633644e51514620003d65780634adc8a6e14620003ee5780634e71e0c8146200040657806351cff8d9146200041e576200024f565b80630e3bd35211620002115780630e3bd352146200030657806318160ddd146200033a57806323b872dd1462000352578063313ce567146200037757806332985bf4146200039e576200024f565b806306fdde031462000254578063078dfbe7146200028457806308a32d8c14620002ab578063095ea7b314620002d2576200024f565b366200024f57005b600080fd5b3480156200026157600080fd5b506200026c62000781565b6040516200027b9190620032a4565b60405180910390f35b3480156200029157600080fd5b50620002a9620002a336600462002b17565b620007a2565b005b348015620002b857600080fd5b50620002c36200089b565b6040516200027b91906200322a565b348015620002df57600080fd5b50620002f7620002f136600462002b68565b620008a3565b6040516200027b91906200321f565b3480156200031357600080fd5b506200032b6200032536600462002a01565b62000910565b6040516200027b919062002ffd565b3480156200034757600080fd5b50620002c36200092b565b3480156200035f57600080fd5b50620002f76200037136600462002a5d565b62000931565b3480156200038457600080fd5b506200038f62000ab9565b6040516200027b9190620037db565b348015620003ab57600080fd5b50620003c3620003bd36600462002a01565b62000abe565b6040516200027b95949392919062003726565b348015620003e357600080fd5b50620002c362000b77565b348015620003fb57600080fd5b50620002a962000b88565b3480156200041357600080fd5b50620002a962000c60565b3480156200042b57600080fd5b50620002a96200043d36600462002a01565b62000cf1565b3480156200045057600080fd5b50620004686200046236600462002be6565b62000e4e565b6040516200027b9190620030f3565b3480156200048457600080fd5b50620002c36200049636600462002efd565b6200125c565b348015620004a957600080fd5b50620002c3620004bb36600462002be6565b620012aa565b348015620004ce57600080fd5b50620004e6620004e036600462002f2f565b620012ec565b6040516200027b9190620031d9565b3480156200050257600080fd5b50620002c36200051436600462002a01565b62001399565b3480156200052757600080fd5b50620002c3620013ab565b3480156200053f57600080fd5b50620005576200055136600462002efd565b620013b3565b6040516200027b949392919062003099565b3480156200057657600080fd5b50620002a96200058836600462002dd0565b6200148f565b3480156200059b57600080fd5b50620002c3620005ad36600462002a01565b62001507565b348015620005c057600080fd5b506200032b62001519565b348015620005d857600080fd5b506200026c62001528565b620002a9620005f436600462002d0b565b62001549565b3480156200060757600080fd5b506200032b620019a0565b3480156200061f57600080fd5b50620006376200063136600462002a01565b620019af565b6040516200027b96959493929190620036e5565b3480156200065857600080fd5b50620002f76200066a36600462002b68565b62001a01565b3480156200067d57600080fd5b50620006956200068f36600462002efd565b62001afe565b6040516200027b929190620032b9565b348015620006b257600080fd5b50620002c3620006c436600462002efd565b62001c52565b620002a9620006db36600462002b96565b62001c72565b348015620006ee57600080fd5b50620002a96200070036600462002aa2565b62001d44565b3480156200071357600080fd5b50620002c36200072536600462002a20565b62001ef7565b3480156200073857600080fd5b506200032b62001f14565b6200075a6200075436600462002c2a565b62001f23565b6040516200027b9190620037ca565b3480156200077657600080fd5b50620002c362002077565b60405180604001604052806005815260200164141a5e195b60da1b81525081565b6006546001600160a01b03163314620007d85760405162461bcd60e51b8152600401620007cf906200351a565b60405180910390fd5b81156200087a576001600160a01b038316151580620007f45750805b620008135760405162461bcd60e51b8152600401620007cf9062003381565b6006546040516001600160a01b038086169216907f8be0079c531659141344cd1fd0a4f28419497f9722a3daafe3b4186f6b6457e090600090a3600680546001600160a01b0385166001600160a01b03199182161790915560078054909116905562000896565b600780546001600160a01b0319166001600160a01b0385161790555b505050565b6360ffdb7981565b3360008181526001602090815260408083206001600160a01b038716808552925280832085905551919290917f8c5be1e5ebec7d5bd14f71427d1e84f3dd0314c0f7b2291e5b200ac8c7c3b92590620008fe9086906200322a565b60405180910390a35060015b92915050565b6004602052600090815260409020546001600160a01b031681565b60035481565b6000811562000a62576001600160a01b03841660009081526020819052604090205482811015620009765760405162461bcd60e51b8152600401620007cf9062003647565b836001600160a01b0316856001600160a01b03161462000a60576001600160a01b0385166000908152600160209081526040808320338452909152902054600019811462000a0a5783811015620009e15760405162461bcd60e51b8152600401620007cf90620034bb565b6001600160a01b0386166000908152600160209081526040808320338452909152902084820390555b6001600160a01b03851662000a335760405162461bcd60e51b8152600401620007cf9062003351565b506001600160a01b0380861660009081526020819052604080822086850390559186168152208054840190555b505b826001600160a01b0316846001600160a01b03167fddf252ad1be2c89b69c2b068fc378daa952ba7f163c4a11628f55a4df523b3ef8460405162000aa791906200322a565b60405180910390a35060019392505050565b601281565b60008060008062000ace62002817565b505061753a546001600160a01b039485166000908152602081815260408083205460035460048452828520546005855294839020835160c08101855281546001600160801b038082168352600160801b9182900481169783019790975260019092015495861694810194909452840463ffffffff9081166060850152600160a01b850481166080850152600160c01b90940490931660a083015293989397919650911693509150565b600062000b836200207e565b905090565b6360ffdb7942101562000b9a57600080fd5b6006546040516000916001600160a01b031690479062000bba9062002ffa565b60006040518083038185875af1925050503d806000811462000bf9576040519150601f19603f3d011682016040523d82523d6000602084013e62000bfe565b606091505b5050809150503060405162000c13906200284c565b62000c1f919062002ffd565b604051809103906000f08015801562000c3c573d6000803e3d6000fd5b50600880546001600160a01b0319166001600160a01b039290921691909117905550565b6007546001600160a01b031633811462000c8e5760405162461bcd60e51b8152600401620007cf906200354f565b6006546040516001600160a01b038084169216907f8be0079c531659141344cd1fd0a4f28419497f9722a3daafe3b4186f6b6457e090600090a3600680546001600160a01b039092166001600160a01b0319928316179055600780549091169055565b6006546001600160a01b0316331462000d1e5760405162461bcd60e51b8152600401620007cf906200351a565b6001600160a01b0381161562000dd5576006546040516370a0823160e01b815262000dcf916001600160a01b0390811691908416906370a082319062000d6990309060040162002ffd565b60206040518083038186803b15801562000d8257600080fd5b505afa15801562000d97573d6000803e3d6000fd5b505050506040513d601f19601f8201168201806040525081019062000dbd919062002f16565b6001600160a01b0384169190620020e2565b62000e4b565b6360ffdb7942101562000e4b576006546040516000916001600160a01b031690479062000e029062002ffa565b60006040518083038185875af1925050503d806000811462000e41576040519150601f19603f3d011682016040523d82523d6000602084013e62000e46565b606091505b505050505b50565b60608167ffffffffffffffff8111801562000e6857600080fd5b5060405190808252806020026020018201604052801562000ea657816020015b62000e926200285a565b81526020019060019003908162000e885790505b50905060005b82811015620012555762000ebf6200288e565b600a85858481811062000ece57fe5b90506020020135612710811062000ee157fe5b604080516080810182526003929092029290920180546001600160a01b031682526001808201546001600160801b038116602080860191909152600160801b90910463ffffffff16848601526002808401805487516101009582161595909502600019011691909104601f8101839004830284018301909652858352939492936060860193909183018282801562000fbd5780601f1062000f915761010080835404028352916020019162000fbd565b820191906000526020600020905b81548152906001019060200180831162000f9f57829003601f168201915b505050505081525050905062000fd2620028b4565b6009826040015163ffffffff168154811062000fea57fe5b60009182526020918290206040805160029384029092018054600181161561010002600019011693909304601f810185900490940282016060908101825290820184815291938492918491908401828280156200108b5780601f106200105f576101008083540402835291602001916200108b565b820191906000526020600020905b8154815290600101906020018083116200106d57829003601f168201915b50505050508152602001600182018054600181600116156101000203166002900480601f016020809104026020016040519081016040528092919081815260200182805460018160011615610100020316600290048015620011315780601f10620011055761010080835404028352916020019162001131565b820191906000526020600020905b8154815290600101906020018083116200111357829003601f168201915b50505050508152505090506200115a8686858181106200114d57fe5b90506020020135620021de565b8484815181106200116757fe5b602090810291909101015163ffffffff9091169052815184518590859081106200118d57fe5b6020026020010151602001906001600160a01b031690816001600160a01b0316815250508160200151848481518110620011c357fe5b6020026020010151604001906001600160801b031690816001600160801b0316815250508060000151848481518110620011f957fe5b60200260200101516060018190525080602001518484815181106200121a57fe5b60200260200101516080018190525081606001518484815181106200123b57fe5b602090810291909101015160a00152505060010162000eac565b5092915050565b600080600a8361271081106200126e57fe5b60030201600101546001600160801b0316905080156200129b57620012958160026200220b565b620012a3565b655af3107a40005b9392505050565b6000805b828110156200125557620012e1620012d9858584818110620012cc57fe5b905060200201356200125c565b839062002247565b9150600101620012ae565b61753a5460609083900382811115620013025750815b8067ffffffffffffffff811180156200131a57600080fd5b5060405190808252806020026020018201604052801562001345578160200160208202803683370190505b50915060005b81811015620013915761753a818601815481106200136557fe5b90600052602060002001548382815181106200137d57fe5b60209081029190910101526001016200134b565b505092915050565b60006020819052908152604090205481565b6360ed667981565b600a816127108110620013c257fe5b6003020180546001808301546002808501805460408051602061010097841615979097026000190190921693909304601f81018690048602820186019093528281526001600160a01b0390951696506001600160801b03831695600160801b90930463ffffffff16949293909190830182828015620014855780601f10620014595761010080835404028352916020019162001485565b820191906000526020600020905b8154815290600101906020018083116200146757829003601f168201915b5050505050905084565b60405163d505accf60e01b81526001600160a01b0389169063d505accf90620014c9908a908a908a908a908a908a908a906004016200302b565b600060405180830381600087803b158015620014e457600080fd5b505af1158015620014f9573d6000803e3d6000fd5b505050505050505050505050565b60026020526000908152604090205481565b6006546001600160a01b031681565b60405180604001604052806005815260200164141256115360da1b81525081565b6360ed667942101580156200156157506360ffdb7942105b620015805760405162461bcd60e51b8152600401620007cf90620033e7565b60006200158e8787620012aa565b905080341015620015b35760405162461bcd60e51b8152600401620007cf9062003416565b6000620015c182346200226d565b905080156200164f576000336001600160a01b031682604051620015e59062002ffa565b60006040518083038185875af1925050503d806000811462001624576040519150601f19603f3d011682016040523d82523d6000602084013e62001629565b606091505b50509050806200164d5760405162461bcd60e51b8152600401620007cf9062003584565b505b6200165b338462002293565b60005b87811015620018955760008989838181106200167657fe5b9050602002013590506000600a8261271081106200169057fe5b60030201546001600160a01b0316600a836127108110620016ad57fe5b6003020160010154604051614e20916001600160801b031690620016d19062002ffa565b600060405180830381858888f193505050503d806000811462001711576040519150601f19603f3d011682016040523d82523d6000602084013e62001716565b606091505b505080915050620017266200288e565b3381526200173e62001738846200125c565b62002492565b6001600160801b0316602082015263ffffffff8a1660408201528888858181106200176557fe5b9050602002810190620017799190620037e9565b8080601f016020809104026020016040519081016040528093929190818152602001838380828437600092019190915250505050606082015280600a846127108110620017c257fe5b82516003919091029190910180546001600160a01b039092166001600160a01b0319909216919091178155602080830151600183018054604086015163ffffffff16600160801b0263ffffffff60801b196001600160801b039094166001600160801b0319909216919091179290921691909117905560608301518051620018519260028501920190620028ce565b505061753a8054600181810183556000929092527fc3e8eaaf1b259cc7815275286d25a9e8a8a3ac0678fe5f874d6f967affd907440194909455505050016200165e565b5086620018b733620018b18368056bc75e2d631000006200220b565b620024be565b6000806000620018c7336200250c565b919450925090506001600160a01b03831615620018f857620018f883620018b1866801158e460913d000006200220b565b6001600160a01b0382161562001921576200192182620018b186678ac7230489e800006200220b565b6001600160a01b038116156200194a576200194a81620018b186674563918244f400006200220b565b620014f98383836200196a62001738896801158e460913d000006200220b565b62001982620017388a678ac7230489e800006200220b565b6200199a620017388b674563918244f400006200220b565b6200257a565b6008546001600160a01b031681565b600560205260009081526040902080546001909101546001600160801b0380831692600160801b908190048216929182169163ffffffff918104821691600160a01b8204811691600160c01b90041686565b60008115158062001a1a5750336001600160a01b038416145b1562001ab957336000908152602081905260409020548281101562001a535760405162461bcd60e51b8152600401620007cf9062003647565b336001600160a01b0385161462001ab7576001600160a01b03841662001a8d5760405162461bcd60e51b8152600401620007cf9062003351565b3360009081526020819052604080822085840390556001600160a01b038616825290208054840190555b505b826001600160a01b0316336001600160a01b03167fddf252ad1be2c89b69c2b068fc378daa952ba7f163c4a11628f55a4df523b3ef84604051620008fe91906200322a565b6009818154811062001b0c57fe5b60009182526020918290206002918202018054604080516001831615610100026000190190921693909304601f81018590048502820185019093528281529093509183919083018282801562001ba65780601f1062001b7a5761010080835404028352916020019162001ba6565b820191906000526020600020905b81548152906001019060200180831162001b8857829003601f168201915b505050505090806001018054600181600116156101000203166002900480601f01602080910402602001604051908101604052809291908181526020018280546001816001161561010002031660029004801562001c485780601f1062001c1c5761010080835404028352916020019162001c48565b820191906000526020600020905b81548152906001019060200180831162001c2a57829003601f168201915b5050505050905082565b61753a818154811062001c6157fe5b600091825260209091200154905081565b60005b8281101562001d3e57600060603086868581811062001c9057fe5b905060200281019062001ca49190620037e9565b60405162001cb492919062002fa3565b600060405180830381855af49150503d806000811462001cf1576040519150601f19603f3d011682016040523d82523d6000602084013e62001cf6565b606091505b50915091508115801562001d075750835b1562001d335762001d188162002719565b60405162461bcd60e51b8152600401620007cf9190620032a4565b505060010162001c75565b50505050565b6001600160a01b03871662001d6d5760405162461bcd60e51b8152600401620007cf90620035d9565b83421062001d8f5760405162461bcd60e51b8152600401620007cf90620034f2565b6001600160a01b038716600081815260026020908152604091829020805460018181019092559251909262001e119262001df5927f6e71edae12b1b97f4d1f60370fef10105fa2faae0126114a169c64845d6126c9928e928e928e92918e910162003233565b6040516020818303038152906040528051906020012062002785565b8585856040516000815260200160405260405162001e33949392919062003286565b6020604051602081039080840390855afa15801562001e56573d6000803e3d6000fd5b505050602060405103516001600160a01b03161462001e895760405162461bcd60e51b8152600401620007cf90620036ae565b6001600160a01b038088166000818152600160209081526040808320948b168084529490915290819020889055517f8c5be1e5ebec7d5bd14f71427d1e84f3dd0314c0f7b2291e5b200ac8c7c3b9259062001ee69089906200322a565b60405180910390a350505050505050565b600160209081526000928352604080842090915290825290205481565b6007546001600160a01b031681565b60006360ed6679421015801562001f3d57506360ffdb7942105b62001f5c5760405162461bcd60e51b8152600401620007cf90620033e7565b62001f66620028b4565b88888080601f016020809104026020016040519081016040528093929190818152602001838380828437600092019190915250505090825250604080516020601f8901819004810282018101909252878152908890889081908401838280828437600092019190915250505050602082015260095462001fe690620021de565b6009805460018101825560009190915282518051929450839260029092027f6e1540171b6c0c960b71a7020d9f60077f6af931a8bbf590da0223dacf75c7af01916200203b91839160209190910190620028ce565b506020828101518051620020569260018501920190620028ce565b505050620020698b8b8488888862001549565b509998505050505050505050565b61753a5490565b6000467f00000000000000000000000000000000000000000000000000000000000000008114620020ba57620020b481620027de565b620020dc565b7f00000000000000000000000000000000000000000000000000000000000000005b91505090565b60006060846001600160a01b031663a9059cbb60e01b85856040516024016200210d929190620030da565b60408051601f198184030181529181526020820180516001600160e01b03166001600160e01b03199094169390931790925290516200214d919062002fb3565b6000604051808303816000865af19150503d80600081146200218c576040519150601f19603f3d011682016040523d82523d6000602084013e62002191565b606091505b5091509150818015620021bf575080511580620021bf575080806020019051810190620021bf919062002db1565b62000e465760405162461bcd60e51b8152600401620007cf906200331a565b600063ffffffff821115620022075760405162461bcd60e51b8152600401620007cf9062003610565b5090565b600081158062002228575050808202828282816200222557fe5b04145b6200090a5760405162461bcd60e51b8152600401620007cf9062003677565b818101818110156200090a5760405162461bcd60e51b8152600401620007cf906200344d565b808203828111156200090a5760405162461bcd60e51b8152600401620007cf90620032eb565b6001600160a01b0381161580620022c357506001600160a01b038281166000908152600460205260409020541615155b15620022cf576200248e565b806001600160a01b0316826001600160a01b03161415620023045760405162461bcd60e51b8152600401620007cf9062003484565b6001600160a01b03828116600090815260046020526040812080546001600160a01b03191692841692909217909155808062002340856200250c565b919450925090506001600160a01b038316156200239f576001600160a01b03831660009081526005602052604090206001908101805463ffffffff600160801b80830482169094011690920263ffffffff60801b199092169190911790555b6001600160a01b03821615620023f7576001600160a01b03821660009081526005602052604090206001908101805463ffffffff600160a01b80830482169094011690920263ffffffff60a01b199092169190911790555b6001600160a01b038116156200244f576001600160a01b03811660009081526005602052604090206001908101805463ffffffff600160c01b80830482169094011690920263ffffffff60c01b199092169190911790555b7ff4c78ee7aea6f59d773994adfe29bbdd72b3f898d9d841ab904a3a647ef3c1a985856040516200248292919062003011565b60405180910390a15050505b5050565b60006001600160801b03821115620022075760405162461bcd60e51b8152600401620007cf90620033b0565b60035480820190811015620024e75760405162461bcd60e51b8152600401620007cf90620035b2565b6003556001600160a01b03909116600090815260208190526040902080549091019055565b6001600160a01b038082166000908152600460205260408120549091169080821562002573576001600160a01b0380841660009081526004602052604090205416915081156200257357506001600160a01b03808216600090815260046020526040902054165b9193909250565b6001600160a01b0386161562002601576001600160a01b0386166000908152600560205260409081902080546001600160801b038082168701166001600160801b0319909116179055517fab447945db99bd5b39787e606f4042798f11b5e38a55486bf06b7368440867e290620025f890889086906001906200306c565b60405180910390a15b6001600160a01b0385161562002687576001600160a01b0385166000908152600560205260409081902080546001600160801b03600160801b808304821687018216029116179055517fab447945db99bd5b39787e606f4042798f11b5e38a55486bf06b7368440867e2906200267e90879086906002906200306c565b60405180910390a15b6001600160a01b0384161562002711576001600160a01b0384166000908152600560205260409081902060010180546001600160801b038082168501166001600160801b0319909116179055517fab447945db99bd5b39787e606f4042798f11b5e38a55486bf06b7368440867e2906200270890869086906003906200306c565b60405180910390a15b505050505050565b606060448251101562002761575060408051808201909152601d81527f5472616e73616374696f6e2072657665727465642073696c656e746c79000000602082015262002780565b600482019150818060200190518101906200277d919062002e5a565b90505b919050565b600060405180604001604052806002815260200161190160f01b815250620027ac6200207e565b83604051602001620027c19392919062002fd1565b604051602081830303815290604052805190602001209050919050565b60007f47e79534a245952e8b16893a336b85a3d9ea9fa8c573f3d803afb92a794692188230604051602001620027c19392919062003267565b6040805160c081018252600080825260208201819052918101829052606081018290526080810182905260a081019190915290565b611205806200388683390190565b6040805160c0810182526000808252602082018190529181019190915260608082018190526080820181905260a082015290565b604080516080810182526000808252602082018190529181019190915260608082015290565b604051806040016040528060608152602001606081525090565b828054600181600116156101000203166002900490600052602060002090601f016020900481019282601f106200291157805160ff191683800117855562002941565b8280016001018555821562002941579182015b828111156200294157825182559160200191906001019062002924565b50620022079291505b808211156200220757600081556001016200294a565b60008083601f84011262002972578182fd5b50813567ffffffffffffffff8111156200298a578182fd5b6020830191508360208083028501011115620029a557600080fd5b9250929050565b60008083601f840112620029be578182fd5b50813567ffffffffffffffff811115620029d6578182fd5b602083019150836020828501011115620029a557600080fd5b803560ff811681146200090a57600080fd5b60006020828403121562002a13578081fd5b8135620012a38162003860565b6000806040838503121562002a33578081fd5b823562002a408162003860565b9150602083013562002a528162003860565b809150509250929050565b60008060006060848603121562002a72578081fd5b833562002a7f8162003860565b9250602084013562002a918162003860565b929592945050506040919091013590565b600080600080600080600060e0888a03121562002abd578283fd5b873562002aca8162003860565b9650602088013562002adc8162003860565b9550604088013594506060880135935062002afb8960808a01620029ef565b925060a0880135915060c0880135905092959891949750929550565b60008060006060848603121562002b2c578283fd5b833562002b398162003860565b9250602084013562002b4b8162003876565b9150604084013562002b5d8162003876565b809150509250925092565b6000806040838503121562002b7b578182fd5b823562002b888162003860565b946020939093013593505050565b60008060006040848603121562002bab578283fd5b833567ffffffffffffffff81111562002bc2578384fd5b62002bd08682870162002960565b909450925050602084013562002b5d8162003876565b6000806020838503121562002bf9578182fd5b823567ffffffffffffffff81111562002c10578283fd5b62002c1e8582860162002960565b90969095509350505050565b600080600080600080600080600060a08a8c03121562002c48578182fd5b893567ffffffffffffffff8082111562002c60578384fd5b62002c6e8d838e0162002960565b909b50995060208c013591508082111562002c87578384fd5b62002c958d838e01620029ac565b909950975060408c013591508082111562002cae578384fd5b62002cbc8d838e01620029ac565b909750955060608c013591508082111562002cd5578384fd5b5062002ce48c828d0162002960565b90945092505060808a013562002cfa8162003860565b809150509295985092959850929598565b6000806000806000806080878903121562002d24578384fd5b863567ffffffffffffffff8082111562002d3c578586fd5b62002d4a8a838b0162002960565b90985096506020890135915063ffffffff8216821462002d68578586fd5b9094506040880135908082111562002d7e578384fd5b5062002d8d89828a0162002960565b909450925050606087013562002da38162003860565b809150509295509295509295565b60006020828403121562002dc3578081fd5b8151620012a38162003876565b600080600080600080600080610100898b03121562002ded578182fd5b883562002dfa8162003860565b9750602089013562002e0c8162003860565b9650604089013562002e1e8162003860565b9550606089013594506080890135935062002e3d8a60a08b01620029ef565b925060c0890135915060e089013590509295985092959890939650565b60006020828403121562002e6c578081fd5b815167ffffffffffffffff8082111562002e84578283fd5b818401915084601f83011262002e98578283fd5b81518181111562002ea7578384fd5b604051601f8201601f19168101602001838111828210171562002ec8578586fd5b60405281815283820160200187101562002ee0578485fd5b62002ef382602083016020870162003831565b9695505050505050565b60006020828403121562002f0f578081fd5b5035919050565b60006020828403121562002f28578081fd5b5051919050565b6000806040838503121562002f42578182fd5b50508035926020909101359150565b6001600160a01b03169052565b6000815180845262002f7881602086016020860162003831565b601f01601f19169290920160200192915050565b6001600160801b03169052565b63ffffffff169052565b6000828483379101908152919050565b6000825162002fc781846020870162003831565b9190910192915050565b6000845162002fe581846020890162003831565b91909101928352506020820152604001919050565b90565b6001600160a01b0391909116815260200190565b6001600160a01b0392831681529116602082015260400190565b6001600160a01b0397881681529590961660208601526040850193909352606084019190915260ff16608083015260a082015260c081019190915260e00190565b6001600160a01b039390931683526001600160801b0391909116602083015260ff16604082015260600190565b6001600160a01b03851681526001600160801b038416602082015263ffffffff8316604082015260806060820181905260009062002ef39083018462002f5e565b6001600160a01b03929092168252602082015260400190565b60208082528251828201819052600091906040908185019080840286018301878501865b83811015620031cb57603f19898403018552815160c06200313a85835162002f99565b888201516200314c8a87018262002f51565b50878201516200315f8987018262002f8c565b506060808301518282880152620031798388018262002f5e565b925050506080808301518683038288015262003196838262002f5e565b9250505060a08083015192508582038187015250620031b6818362002f5e565b96890196945050509086019060010162003117565b509098975050505050505050565b6020808252825182820181905260009190848201906040850190845b818110156200321357835183529284019291840191600101620031f5565b50909695505050505050565b901515815260200190565b90815260200190565b9586526001600160a01b0394851660208701529290931660408501526060840152608083019190915260a082015260c00190565b92835260208301919091526001600160a01b0316604082015260600190565b93845260ff9290921660208401526040830152606082015260800190565b600060208252620012a3602083018462002f5e565b600060408252620032ce604083018562002f5e565b8281036020840152620032e2818562002f5e565b95945050505050565b602080825260159082015274426f72696e674d6174683a20556e646572666c6f7760581b604082015260600190565b6020808252601c908201527f426f72696e6745524332303a205472616e73666572206661696c656400000000604082015260600190565b60208082526016908201527545524332303a206e6f207a65726f206164647265737360501b604082015260600190565b6020808252601590820152744f776e61626c653a207a65726f206164647265737360581b604082015260600190565b6020808252601c908201527f426f72696e674d6174683a2075696e74313238204f766572666c6f7700000000604082015260600190565b6020808252601590820152744e6f7420696e206372656174696f6e20706861736560581b604082015260600190565b60208082526017908201527f506978656c3a206e6f7420656e6f7567682066756e6473000000000000000000604082015260600190565b60208082526018908201527f426f72696e674d6174683a20416464204f766572666c6f770000000000000000604082015260600190565b60208082526019908201527f4d4c4d3a2043616e277420726566657220796f757273656c6600000000000000604082015260600190565b60208082526018908201527f45524332303a20616c6c6f77616e636520746f6f206c6f770000000000000000604082015260600190565b6020808252600e908201526d115490cc8c0e88115e1c1a5c995960921b604082015260600190565b6020808252818101527f4f776e61626c653a2063616c6c6572206973206e6f7420746865206f776e6572604082015260600190565b6020808252818101527f4f776e61626c653a2063616c6c657220213d2070656e64696e67206f776e6572604082015260600190565b602080825260149082015273141a5e195b0e881c99599d5b990819985a5b195960621b604082015260600190565b6020808252600d908201526c4d696e74206f766572666c6f7760981b604082015260600190565b60208082526018908201527f45524332303a204f776e65722063616e6e6f7420626520300000000000000000604082015260600190565b6020808252601b908201527f426f72696e674d6174683a2075696e743332204f766572666c6f770000000000604082015260600190565b60208082526016908201527545524332303a2062616c616e636520746f6f206c6f7760501b604082015260600190565b60208082526018908201527f426f72696e674d6174683a204d756c204f766572666c6f770000000000000000604082015260600190565b60208082526018908201527f45524332303a20496e76616c6964205369676e61747572650000000000000000604082015260600190565b6001600160801b039687168152948616602086015292909416604084015263ffffffff9081166060840152928316608083015290911660a082015260c00190565b858152602080820186905260408083018690526001600160a01b038516606084015283516001600160801b0390811660808501529184015190911660a08301528201516101408201906200377e60c084018262002f8c565b5060608301516200379360e084018262002f99565b506080830151620037a961010084018262002f99565b5060a0830151620037bf61012084018262002f99565b509695505050505050565b63ffffffff91909116815260200190565b60ff91909116815260200190565b6000808335601e1984360301811262003800578283fd5b83018035915067ffffffffffffffff8211156200381b578283fd5b602001915036819003821315620029a557600080fd5b60005b838110156200384e57818101518382015260200162003834565b8381111562001d3e5750506000910152565b6001600160a01b038116811462000e4b57600080fd5b801515811462000e4b57600080fdfe608060405234801561001057600080fd5b5060405161120538038061120583398101604081905261002f916100cf565b600380546001600160a01b0319166001600160a01b038316908117909155604080516318160ddd60e01b81529051600a92916318160ddd916004808301926020929190829003018186803b15801561008657600080fd5b505afa15801561009a573d6000803e3d6000fd5b505050506040513d601f19601f820116820180604052508101906100be91906100fd565b816100c557fe5b0460025550610115565b6000602082840312156100e0578081fd5b81516001600160a01b03811681146100f6578182fd5b9392505050565b60006020828403121561010e578081fd5b5051919050565b6110e1806101246000396000f3fe6080604052600436106101355760003560e01c806370a08231116100ab578063a22cb4651161006f578063a22cb46514610305578063a6f2ae3a14610325578063b88d4fde1461032d578063c87b56dd14610340578063e534155d14610360578063e985e9c51461037557610135565b806370a08231146102865780638cd295c2146102a6578063937f6e77146102bb57806395d89b41146102db578063a035b1fe146102f057610135565b806319e1fca4116100fd57806319e1fca4146101f657806323b872dd1461020b5780632637588e1461021e578063370158ea1461023e57806342842e0e146102535780636352211e1461026657610135565b806301ffc9a71461013a57806306fdde0314610170578063081812fc14610192578063095ea7b3146101bf57806318160ddd146101d4575b600080fd5b34801561014657600080fd5b5061015a610155366004610d73565b610395565b6040516101679190610e9d565b60405180910390f35b34801561017c57600080fd5b506101856103cc565b6040516101679190610ea8565b34801561019e57600080fd5b506101b26101ad366004610de6565b6103fc565b6040516101679190610e4c565b6101d26101cd366004610d49565b610436565b005b3480156101e057600080fd5b506101e9610477565b6040516101679190611074565b34801561020257600080fd5b506101b261049b565b6101d2610219366004610c66565b6104aa565b34801561022a57600080fd5b5061015a610239366004610c32565b6104ba565b34801561024a57600080fd5b506101856104da565b6101d2610261366004610c66565b610568565b34801561027257600080fd5b506101b2610281366004610de6565b610583565b34801561029257600080fd5b506101e96102a1366004610c10565b6105dc565b3480156102b257600080fd5b506101b261062c565b3480156102c757600080fd5b506101d26102d6366004610dab565b61063b565b3480156102e757600080fd5b5061018561067c565b3480156102fc57600080fd5b506101e961069e565b34801561031157600080fd5b506101d2610320366004610d0e565b6106a4565b6101d26106dc565b6101d261033b366004610ca6565b61083b565b34801561034c57600080fd5b5061018561035b366004610de6565b610907565b34801561036c57600080fd5b506101b2610960565b34801561038157600080fd5b5061015a610390366004610c32565b61096f565b60006001600160e01b031982166301ffc9a760e01b14806103c657506380ac58cd60e01b6001600160e01b03198316145b92915050565b604051806040016040528060148152602001735468652043616e766173206f6620506978656c7360601b81525081565b600081156104255760405162461bcd60e51b815260040161041c90610f74565b60405180910390fd5b50506001546001600160a01b031690565b80156104545760405162461bcd60e51b815260040161041c90610f74565b50600180546001600160a01b0319166001600160a01b0392909216919091179055565b600080546001600160a01b031615610490576001610493565b60005b60ff16905090565b6001546001600160a01b031681565b6104b583838361099d565b505050565b600560209081526000928352604080842090915290825290205460ff1681565b6004805460408051602060026001851615610100026000190190941693909304601f810184900484028201840190925281815292918301828280156105605780601f1061053557610100808354040283529160200191610560565b820191906000526020600020905b81548152906001019060200180831161054357829003601f168201915b505050505081565b6104b58383836040518060200160405280600081525061083b565b600081156105a35760405162461bcd60e51b815260040161041c90610f74565b6000546001600160a01b03166105cb5760405162461bcd60e51b815260040161041c90610fc7565b50506000546001600160a01b031690565b60006001600160a01b0382166106045760405162461bcd60e51b815260040161041c90610f9e565b6000546001600160a01b03838116911614610620576000610623565b60015b60ff1692915050565b6003546001600160a01b031681565b6000546001600160a01b031633146106655760405162461bcd60e51b815260040161041c90610fe9565b8051610678906004906020840190610ae8565b5050565b6040518060400160405280600681526020016543414e56415360d01b81525081565b60025481565b3360009081526005602090815260408083206001600160a01b0395909516835293905291909120805460ff1916911515919091179055565b60025434146106fd5760405162461bcd60e51b815260040161041c9061104c565b600080546002546001600160a01b039091169060969061071e90606e610aab565b8161072557fe5b04614e209060405161073690610e49565b600060405180830381858888f193505050503d8060008114610774576040519150601f19603f3d011682016040523d82523d6000602084013e610779565b606091505b50506003546002549192506001600160a01b03169060969061079c906028610aab565b816107a357fe5b04614e20906040516107b490610e49565b600060405180830381858888f193505050503d80600081146107f2576040519150601f19603f3d011682016040523d82523d6000602084013e6107f7565b606091505b5050809150508061081a5760405162461bcd60e51b815260040161041c90610ee9565b50600080546001600160a01b03199081163317909155600180549091169055565b61084684848461099d565b61084f83610ae2565b1561090157604051630a85bd0160e11b808252906001600160a01b0385169063150b7a0290610888903390899088908890600401610e60565b602060405180830381600087803b1580156108a257600080fd5b505af11580156108b6573d6000803e3d6000fd5b505050506040513d601f19601f820116820180604052508101906108da9190610d8f565b6001600160e01b031916146109015760405162461bcd60e51b815260040161041c90610f20565b50505050565b606081156109275760405162461bcd60e51b815260040161041c90610f74565b505060408051808201909152601d81527f68747470733a2f2f706978656c2e696e632f63616e7661732e6a736f6e000000602082015290565b6000546001600160a01b031681565b6001600160a01b03918216600090815260056020908152604080832093909416825291909152205460ff1690565b80156109bb5760405162461bcd60e51b815260040161041c90610f74565b6000546001600160a01b038481169116146109e85760405162461bcd60e51b815260040161041c90610f4c565b6001600160a01b038316331480610a0c57506001546001600160a01b038481169116145b80610a3e5750600080546001600160a01b039081168252600560209081526040808420928716845291905290205460ff165b610a5a5760405162461bcd60e51b815260040161041c90610ebb565b6001600160a01b038216610a805760405162461bcd60e51b815260040161041c90610f9e565b50600080546001600160a01b039092166001600160a01b031992831617905560018054909116905550565b6000811580610ac657505080820282828281610ac357fe5b04145b6103c65760405162461bcd60e51b815260040161041c90611015565b3b151590565b828054600181600116156101000203166002900490600052602060002090601f016020900481019282601f10610b2957805160ff1916838001178555610b56565b82800160010185558215610b56579182015b82811115610b56578251825591602001919060010190610b3b565b50610b62929150610b66565b5090565b5b80821115610b625760008155600101610b67565b80356001600160a01b03811681146103c657600080fd5b600082601f830112610ba2578081fd5b813567ffffffffffffffff80821115610bb9578283fd5b604051601f8301601f191681016020018281118282101715610bd9578485fd5b604052828152925082848301602001861015610bf457600080fd5b8260208601602083013760006020848301015250505092915050565b600060208284031215610c21578081fd5b610c2b8383610b7b565b9392505050565b60008060408385031215610c44578081fd5b610c4e8484610b7b565b9150610c5d8460208501610b7b565b90509250929050565b600080600060608486031215610c7a578081fd5b8335610c858161107d565b92506020840135610c958161107d565b929592945050506040919091013590565b60008060008060808587031215610cbb578081fd5b610cc58686610b7b565b9350610cd48660208701610b7b565b925060408501359150606085013567ffffffffffffffff811115610cf6578182fd5b610d0287828801610b92565b91505092959194509250565b60008060408385031215610d20578182fd5b610d2a8484610b7b565b915060208301358015158114610d3e578182fd5b809150509250929050565b60008060408385031215610d5b578182fd5b610d658484610b7b565b946020939093013593505050565b600060208284031215610d84578081fd5b8135610c2b81611095565b600060208284031215610da0578081fd5b8151610c2b81611095565b600060208284031215610dbc578081fd5b813567ffffffffffffffff811115610dd2578182fd5b610dde84828501610b92565b949350505050565b600060208284031215610df7578081fd5b5035919050565b60008151808452815b81811015610e2357602081850181015186830182015201610e07565b81811115610e345782602083870101525b50601f01601f19169290920160200192915050565b90565b6001600160a01b0391909116815260200190565b6001600160a01b0385811682528416602082015260408101839052608060608201819052600090610e9390830184610dfe565b9695505050505050565b901515815260200190565b600060208252610c2b6020830184610dfe565b602080825260149082015273151c985b9cd9995c881b9bdd08185b1b1bddd95960621b604082015260600190565b60208082526019908201527f46756e64696e6720706978656c20706f6f6c206661696c656400000000000000604082015260600190565b60208082526012908201527157726f6e672072657475726e2076616c756560701b604082015260600190565b6020808252600e908201526d233937b6903737ba1037bbb732b960911b604082015260600190565b60208082526010908201526f125b9d985b1a59081d1bdad95b88125160821b604082015260600190565b6020808252600f908201526e4e6f207a65726f206164647265737360881b604082015260600190565b60208082526008908201526727379037bbb732b960c11b604082015260600190565b60208082526012908201527121b0b73b30b99d103737ba103437b63232b960711b604082015260600190565b60208082526018908201527f426f72696e674d6174683a204d756c204f766572666c6f770000000000000000604082015260600190565b6020808252600e908201526d56616c756520213d20707269636560901b604082015260600190565b90815260200190565b6001600160a01b038116811461109257600080fd5b50565b6001600160e01b03198116811461109257600080fdfea2646970667358221220b67856433166e2faa4a76aa38fcefafb8ce98f30e73ea15307946baaa8ca3f3e64736f6c634300060c0033a26469706673582212203bd6519a3817fafdbed30fbbb8fad56cecf2717f2e651e8507f89d3eab28ae6064736f6c634300060c0033",
  "devdoc": {
    "kind": "dev",
    "methods": {
      "approve(address,uint256)": {
        "params": {
          "amount": "The maximum collective amount that `spender` can draw.",
          "spender": "Address of the party that can draw from msg.sender's account."
        },
        "returns": {
          "_0": "(bool) Returns True if approved."
        }
      },
      "batch(bytes[],bool)": {
        "params": {
          "calls": "An array of inputs for each call.",
          "revertOnFail": "If True then reverts after a failed call and stops doing further calls."
        }
      },
      "permit(address,address,uint256,uint256,uint8,bytes32,bytes32)": {
        "params": {
          "deadline": "This permit must be redeemed before this deadline (UTC timestamp in seconds).",
          "owner_": "Address of the owner.",
          "spender": "The address of the spender that gets approved to draw from `owner_`.",
          "value": "The maximum collective amount that `spender` can draw."
        }
      },
      "transfer(address,uint256)": {
        "params": {
          "amount": "of the tokens to move.",
          "to": "The address to move the tokens."
        },
        "returns": {
          "_0": "(bool) Returns True if succeeded."
        }
      },
      "transferFrom(address,address,uint256)": {
        "params": {
          "amount": "The token amount to move.",
          "from": "Address to draw tokens from.",
          "to": "The address to move the tokens."
        },
        "returns": {
          "_0": "(bool) Returns True if succeeded."
        }
      },
      "transferOwnership(address,bool,bool)": {
        "params": {
          "direct": "True if `newOwner` should be set immediately. False if `newOwner` needs to use `claimOwnership`.",
          "newOwner": "Address of the new owner.",
          "renounce": "Allows the `newOwner` to be `address(0)` if `direct` and `renounce` is True. Has no effect otherwise."
        }
      }
    },
    "version": 1
  },
  "userdoc": {
    "kind": "user",
    "methods": {
      "allowance(address,address)": {
        "notice": "owner > spender > allowance mapping."
      },
      "approve(address,uint256)": {
        "notice": "Approves `amount` from sender to be spend by `spender`."
      },
      "balanceOf(address)": {
        "notice": "owner > balance mapping."
      },
      "batch(bytes[],bool)": {
        "notice": "Allows batched call to self (this contract)."
      },
      "claimOwnership()": {
        "notice": "Needs to be called by `pendingOwner` to claim ownership."
      },
      "nonces(address)": {
        "notice": "owner > nonce mapping. Used in `permit`."
      },
      "permit(address,address,uint256,uint256,uint8,bytes32,bytes32)": {
        "notice": "Approves `value` from `owner_` to be spend by `spender`."
      },
      "permitToken(address,address,address,uint256,uint256,uint8,bytes32,bytes32)": {
        "notice": "Call wrapper that performs `ERC20.permit` on `token`. Lookup `IERC20.permit`."
      },
      "transfer(address,uint256)": {
        "notice": "Transfers `amount` tokens from `msg.sender` to `to`."
      },
      "transferFrom(address,address,uint256)": {
        "notice": "Transfers `amount` tokens from `from` to `to`. Caller needs approval for `from`."
      },
      "transferOwnership(address,bool,bool)": {
        "notice": "Transfers ownership to `newOwner`. Either directly or claimable by the new pending owner. Can only be invoked by the current `owner`."
      }
    },
    "version": 1
  },
  "storageLayout": {
    "storage": [
      {
        "astId": 368,
        "contract": "contracts/Pixel.sol:Pixel",
        "label": "balanceOf",
        "offset": 0,
        "slot": "0",
        "type": "t_mapping(t_address,t_uint256)"
      },
      {
        "astId": 376,
        "contract": "contracts/Pixel.sol:Pixel",
        "label": "allowance",
        "offset": 0,
        "slot": "1",
        "type": "t_mapping(t_address,t_mapping(t_address,t_uint256))"
      },
      {
        "astId": 381,
        "contract": "contracts/Pixel.sol:Pixel",
        "label": "nonces",
        "offset": 0,
        "slot": "2",
        "type": "t_mapping(t_address,t_uint256)"
      },
      {
        "astId": 705,
        "contract": "contracts/Pixel.sol:Pixel",
        "label": "totalSupply",
        "offset": 0,
        "slot": "3",
        "type": "t_uint256"
      },
      {
        "astId": 1945,
        "contract": "contracts/Pixel.sol:Pixel",
        "label": "upline",
        "offset": 0,
        "slot": "4",
        "type": "t_mapping(t_address,t_address)"
      },
      {
        "astId": 1949,
        "contract": "contracts/Pixel.sol:Pixel",
        "label": "downline",
        "offset": 0,
        "slot": "5",
        "type": "t_mapping(t_address,t_struct(DownlineStats)1941_storage)"
      },
      {
        "astId": 118,
        "contract": "contracts/Pixel.sol:Pixel",
        "label": "owner",
        "offset": 0,
        "slot": "6",
        "type": "t_address"
      },
      {
        "astId": 120,
        "contract": "contracts/Pixel.sol:Pixel",
        "label": "pendingOwner",
        "offset": 0,
        "slot": "7",
        "type": "t_address"
      },
      {
        "astId": 2210,
        "contract": "contracts/Pixel.sol:Pixel",
        "label": "canvas",
        "offset": 0,
        "slot": "8",
        "type": "t_address"
      },
      {
        "astId": 2243,
        "contract": "contracts/Pixel.sol:Pixel",
        "label": "link",
        "offset": 0,
        "slot": "9",
        "type": "t_array(t_struct(BlockLink)2218_storage)dyn_storage"
      },
      {
        "astId": 2247,
        "contract": "contracts/Pixel.sol:Pixel",
        "label": "blk",
        "offset": 0,
        "slot": "10",
        "type": "t_array(t_struct(Block)2227_storage)10000_storage"
      },
      {
        "astId": 2258,
        "contract": "contracts/Pixel.sol:Pixel",
        "label": "updates",
        "offset": 0,
        "slot": "30010",
        "type": "t_array(t_uint256)dyn_storage"
      }
    ],
    "types": {
      "t_address": {
        "encoding": "inplace",
        "label": "address",
        "numberOfBytes": "20"
      },
      "t_array(t_struct(Block)2227_storage)10000_storage": {
        "base": "t_struct(Block)2227_storage",
        "encoding": "inplace",
        "label": "struct Pixel.Block[10000]",
        "numberOfBytes": "960000"
      },
      "t_array(t_struct(BlockLink)2218_storage)dyn_storage": {
        "base": "t_struct(BlockLink)2218_storage",
        "encoding": "dynamic_array",
        "label": "struct Pixel.BlockLink[]",
        "numberOfBytes": "32"
      },
      "t_array(t_uint256)dyn_storage": {
        "base": "t_uint256",
        "encoding": "dynamic_array",
        "label": "uint256[]",
        "numberOfBytes": "32"
      },
      "t_bytes_storage": {
        "encoding": "bytes",
        "label": "bytes",
        "numberOfBytes": "32"
      },
      "t_mapping(t_address,t_address)": {
        "encoding": "mapping",
        "key": "t_address",
        "label": "mapping(address => address)",
        "numberOfBytes": "32",
        "value": "t_address"
      },
      "t_mapping(t_address,t_mapping(t_address,t_uint256))": {
        "encoding": "mapping",
        "key": "t_address",
        "label": "mapping(address => mapping(address => uint256))",
        "numberOfBytes": "32",
        "value": "t_mapping(t_address,t_uint256)"
      },
      "t_mapping(t_address,t_struct(DownlineStats)1941_storage)": {
        "encoding": "mapping",
        "key": "t_address",
        "label": "mapping(address => struct MLM.DownlineStats)",
        "numberOfBytes": "32",
        "value": "t_struct(DownlineStats)1941_storage"
      },
      "t_mapping(t_address,t_uint256)": {
        "encoding": "mapping",
        "key": "t_address",
        "label": "mapping(address => uint256)",
        "numberOfBytes": "32",
        "value": "t_uint256"
      },
      "t_string_storage": {
        "encoding": "bytes",
        "label": "string",
        "numberOfBytes": "32"
      },
      "t_struct(Block)2227_storage": {
        "encoding": "inplace",
        "label": "struct Pixel.Block",
        "members": [
          {
            "astId": 2220,
            "contract": "contracts/Pixel.sol:Pixel",
            "label": "owner",
            "offset": 0,
            "slot": "0",
            "type": "t_address"
          },
          {
            "astId": 2222,
            "contract": "contracts/Pixel.sol:Pixel",
            "label": "lastPrice",
            "offset": 0,
            "slot": "1",
            "type": "t_uint128"
          },
          {
            "astId": 2224,
            "contract": "contracts/Pixel.sol:Pixel",
            "label": "link",
            "offset": 16,
            "slot": "1",
            "type": "t_uint32"
          },
          {
            "astId": 2226,
            "contract": "contracts/Pixel.sol:Pixel",
            "label": "pixels",
            "offset": 0,
            "slot": "2",
            "type": "t_bytes_storage"
          }
        ],
        "numberOfBytes": "96"
      },
      "t_struct(BlockLink)2218_storage": {
        "encoding": "inplace",
        "label": "struct Pixel.BlockLink",
        "members": [
          {
            "astId": 2215,
            "contract": "contracts/Pixel.sol:Pixel",
            "label": "url",
            "offset": 0,
            "slot": "0",
            "type": "t_string_storage"
          },
          {
            "astId": 2217,
            "contract": "contracts/Pixel.sol:Pixel",
            "label": "description",
            "offset": 0,
            "slot": "1",
            "type": "t_string_storage"
          }
        ],
        "numberOfBytes": "64"
      },
      "t_struct(DownlineStats)1941_storage": {
        "encoding": "inplace",
        "label": "struct MLM.DownlineStats",
        "members": [
          {
            "astId": 1930,
            "contract": "contracts/Pixel.sol:Pixel",
            "label": "earnings1",
            "offset": 0,
            "slot": "0",
            "type": "t_uint128"
          },
          {
            "astId": 1932,
            "contract": "contracts/Pixel.sol:Pixel",
            "label": "earnings2",
            "offset": 16,
            "slot": "0",
            "type": "t_uint128"
          },
          {
            "astId": 1934,
            "contract": "contracts/Pixel.sol:Pixel",
            "label": "earnings3",
            "offset": 0,
            "slot": "1",
            "type": "t_uint128"
          },
          {
            "astId": 1936,
            "contract": "contracts/Pixel.sol:Pixel",
            "label": "tier1",
            "offset": 16,
            "slot": "1",
            "type": "t_uint32"
          },
          {
            "astId": 1938,
            "contract": "contracts/Pixel.sol:Pixel",
            "label": "tier2",
            "offset": 20,
            "slot": "1",
            "type": "t_uint32"
          },
          {
            "astId": 1940,
            "contract": "contracts/Pixel.sol:Pixel",
            "label": "tier3",
            "offset": 24,
            "slot": "1",
            "type": "t_uint32"
          }
        ],
        "numberOfBytes": "64"
      },
      "t_uint128": {
        "encoding": "inplace",
        "label": "uint128",
        "numberOfBytes": "16"
      },
      "t_uint256": {
        "encoding": "inplace",
        "label": "uint256",
        "numberOfBytes": "32"
      },
      "t_uint32": {
        "encoding": "inplace",
        "label": "uint32",
        "numberOfBytes": "4"
      }
    }
  }
}