{
  "address": "0x3Aa5ebB10DC797CAC828524e59A333d0A371443c",
  "abi": [
    {
      "inputs": [],
      "stateMutability": "nonpayable",
      "type": "constructor"
    },
    {
      "anonymous": false,
      "inputs": [
        {
          "indexed": true,
          "internalType": "address",
          "name": "_owner",
          "type": "address"
        },
        {
          "indexed": true,
          "internalType": "address",
          "name": "_spender",
          "type": "address"
        },
        {
          "indexed": false,
          "internalType": "uint256",
          "name": "_value",
          "type": "uint256"
        }
      ],
      "name": "Approval",
      "type": "event"
    },
    {
      "anonymous": false,
      "inputs": [
        {
          "indexed": true,
          "internalType": "address",
          "name": "previousOwner",
          "type": "address"
        },
        {
          "indexed": true,
          "internalType": "address",
          "name": "newOwner",
          "type": "address"
        }
      ],
      "name": "OwnershipTransferred",
      "type": "event"
    },
    {
      "anonymous": false,
      "inputs": [
        {
          "indexed": true,
          "internalType": "address",
          "name": "_from",
          "type": "address"
        },
        {
          "indexed": true,
          "internalType": "address",
          "name": "_to",
          "type": "address"
        },
        {
          "indexed": false,
          "internalType": "uint256",
          "name": "_value",
          "type": "uint256"
        }
      ],
      "name": "Transfer",
      "type": "event"
    },
    {
      "inputs": [],
      "name": "DOMAIN_SEPARATOR",
      "outputs": [
        {
          "internalType": "bytes32",
          "name": "",
          "type": "bytes32"
        }
      ],
      "stateMutability": "view",
      "type": "function"
    },
    {
      "inputs": [
        {
          "internalType": "address",
          "name": "",
          "type": "address"
        },
        {
          "internalType": "address",
          "name": "",
          "type": "address"
        }
      ],
      "name": "allowance",
      "outputs": [
        {
          "internalType": "uint256",
          "name": "",
          "type": "uint256"
        }
      ],
      "stateMutability": "view",
      "type": "function"
    },
    {
      "inputs": [
        {
          "internalType": "address",
          "name": "spender",
          "type": "address"
        },
        {
          "internalType": "uint256",
          "name": "amount",
          "type": "uint256"
        }
      ],
      "name": "approve",
      "outputs": [
        {
          "internalType": "bool",
          "name": "",
          "type": "bool"
        }
      ],
      "stateMutability": "nonpayable",
      "type": "function"
    },
    {
      "inputs": [
        {
          "internalType": "address",
          "name": "",
          "type": "address"
        }
      ],
      "name": "balanceOf",
      "outputs": [
        {
          "internalType": "uint256",
          "name": "",
          "type": "uint256"
        }
      ],
      "stateMutability": "view",
      "type": "function"
    },
    {
      "inputs": [
        {
          "internalType": "bytes[]",
          "name": "calls",
          "type": "bytes[]"
        },
        {
          "internalType": "bool",
          "name": "revertOnFail",
          "type": "bool"
        }
      ],
      "name": "batch",
      "outputs": [],
      "stateMutability": "payable",
      "type": "function"
    },
    {
      "inputs": [
        {
          "internalType": "uint256",
          "name": "",
          "type": "uint256"
        }
      ],
      "name": "blk",
      "outputs": [
        {
          "internalType": "address",
          "name": "owner",
          "type": "address"
        },
        {
          "internalType": "uint128",
          "name": "lastPrice",
          "type": "uint128"
        },
        {
          "internalType": "uint32",
          "name": "lastSold",
          "type": "uint32"
        },
        {
          "internalType": "uint32",
          "name": "link",
          "type": "uint32"
        },
        {
          "internalType": "bytes",
          "name": "pixels",
          "type": "bytes"
        }
      ],
      "stateMutability": "view",
      "type": "function"
    },
    {
      "inputs": [],
      "name": "canvas",
      "outputs": [
        {
          "internalType": "address",
          "name": "",
          "type": "address"
        }
      ],
      "stateMutability": "view",
      "type": "function"
    },
    {
      "inputs": [],
      "name": "claimOwnership",
      "outputs": [],
      "stateMutability": "nonpayable",
      "type": "function"
    },
    {
      "inputs": [],
      "name": "decimals",
      "outputs": [
        {
          "internalType": "uint8",
          "name": "",
          "type": "uint8"
        }
      ],
      "stateMutability": "view",
      "type": "function"
    },
    {
      "inputs": [
        {
          "internalType": "uint256[]",
          "name": "blockNumbers",
          "type": "uint256[]"
        }
      ],
      "name": "getBlocks",
      "outputs": [
        {
          "components": [
            {
              "internalType": "uint32",
              "name": "number",
              "type": "uint32"
            },
            {
              "internalType": "address",
              "name": "owner",
              "type": "address"
            },
            {
              "internalType": "uint128",
              "name": "lastPrice",
              "type": "uint128"
            },
            {
              "internalType": "uint32",
              "name": "lastSold",
              "type": "uint32"
            },
            {
              "internalType": "string",
              "name": "url",
              "type": "string"
            },
            {
              "internalType": "string",
              "name": "description",
              "type": "string"
            },
            {
              "internalType": "bytes",
              "name": "pixels",
              "type": "bytes"
            }
          ],
          "internalType": "struct Pixel.ExportBlock[]",
          "name": "blocks",
          "type": "tuple[]"
        }
      ],
      "stateMutability": "view",
      "type": "function"
    },
    {
      "inputs": [
        {
          "internalType": "uint256",
          "name": "blockNumber",
          "type": "uint256"
        }
      ],
      "name": "getCost",
      "outputs": [
        {
          "internalType": "uint256",
          "name": "cost",
          "type": "uint256"
        }
      ],
      "stateMutability": "view",
      "type": "function"
    },
    {
      "inputs": [
        {
          "internalType": "uint256[]",
          "name": "blockNumbers",
          "type": "uint256[]"
        }
      ],
      "name": "getCost",
      "outputs": [
        {
          "internalType": "uint256",
          "name": "cost",
          "type": "uint256"
        }
      ],
      "stateMutability": "view",
      "type": "function"
    },
    {
      "inputs": [
        {
          "internalType": "uint256",
          "name": "since",
          "type": "uint256"
        }
      ],
      "name": "getUpdates",
      "outputs": [
        {
          "internalType": "uint256[]",
          "name": "updatesSince",
          "type": "uint256[]"
        }
      ],
      "stateMutability": "view",
      "type": "function"
    },
    {
      "inputs": [],
      "name": "getlastSolds",
      "outputs": [
        {
          "internalType": "uint32[10000]",
          "name": "lastSolds",
          "type": "uint32[10000]"
        }
      ],
      "stateMutability": "view",
      "type": "function"
    },
    {
      "inputs": [
        {
          "internalType": "uint256",
          "name": "",
          "type": "uint256"
        }
      ],
      "name": "link",
      "outputs": [
        {
          "internalType": "string",
          "name": "url",
          "type": "string"
        },
        {
          "internalType": "string",
          "name": "description",
          "type": "string"
        }
      ],
      "stateMutability": "view",
      "type": "function"
    },
    {
      "inputs": [],
      "name": "lockTimestamp",
      "outputs": [
        {
          "internalType": "uint256",
          "name": "",
          "type": "uint256"
        }
      ],
      "stateMutability": "view",
      "type": "function"
    },
    {
      "inputs": [],
      "name": "mintCanvas",
      "outputs": [],
      "stateMutability": "nonpayable",
      "type": "function"
    },
    {
      "inputs": [],
      "name": "name",
      "outputs": [
        {
          "internalType": "string",
          "name": "",
          "type": "string"
        }
      ],
      "stateMutability": "view",
      "type": "function"
    },
    {
      "inputs": [
        {
          "internalType": "address",
          "name": "",
          "type": "address"
        }
      ],
      "name": "nonces",
      "outputs": [
        {
          "internalType": "uint256",
          "name": "",
          "type": "uint256"
        }
      ],
      "stateMutability": "view",
      "type": "function"
    },
    {
      "inputs": [],
      "name": "owner",
      "outputs": [
        {
          "internalType": "address",
          "name": "",
          "type": "address"
        }
      ],
      "stateMutability": "view",
      "type": "function"
    },
    {
      "inputs": [],
      "name": "pendingOwner",
      "outputs": [
        {
          "internalType": "address",
          "name": "",
          "type": "address"
        }
      ],
      "stateMutability": "view",
      "type": "function"
    },
    {
      "inputs": [
        {
          "internalType": "address",
          "name": "owner_",
          "type": "address"
        },
        {
          "internalType": "address",
          "name": "spender",
          "type": "address"
        },
        {
          "internalType": "uint256",
          "name": "value",
          "type": "uint256"
        },
        {
          "internalType": "uint256",
          "name": "deadline",
          "type": "uint256"
        },
        {
          "internalType": "uint8",
          "name": "v",
          "type": "uint8"
        },
        {
          "internalType": "bytes32",
          "name": "r",
          "type": "bytes32"
        },
        {
          "internalType": "bytes32",
          "name": "s",
          "type": "bytes32"
        }
      ],
      "name": "permit",
      "outputs": [],
      "stateMutability": "nonpayable",
      "type": "function"
    },
    {
      "inputs": [
        {
          "internalType": "contract IERC20",
          "name": "token",
          "type": "address"
        },
        {
          "internalType": "address",
          "name": "from",
          "type": "address"
        },
        {
          "internalType": "address",
          "name": "to",
          "type": "address"
        },
        {
          "internalType": "uint256",
          "name": "amount",
          "type": "uint256"
        },
        {
          "internalType": "uint256",
          "name": "deadline",
          "type": "uint256"
        },
        {
          "internalType": "uint8",
          "name": "v",
          "type": "uint8"
        },
        {
          "internalType": "bytes32",
          "name": "r",
          "type": "bytes32"
        },
        {
          "internalType": "bytes32",
          "name": "s",
          "type": "bytes32"
        }
      ],
      "name": "permitToken",
      "outputs": [],
      "stateMutability": "nonpayable",
      "type": "function"
    },
    {
      "inputs": [
        {
          "internalType": "uint256[]",
          "name": "blockNumbers",
          "type": "uint256[]"
        },
        {
          "internalType": "uint32",
          "name": "linkNumber",
          "type": "uint32"
        },
        {
          "internalType": "bytes[]",
          "name": "pixels",
          "type": "bytes[]"
        }
      ],
      "name": "setBlocks",
      "outputs": [],
      "stateMutability": "payable",
      "type": "function"
    },
    {
      "inputs": [
        {
          "internalType": "uint256[]",
          "name": "blockNumbers",
          "type": "uint256[]"
        },
        {
          "internalType": "string",
          "name": "url",
          "type": "string"
        },
        {
          "internalType": "string",
          "name": "description",
          "type": "string"
        },
        {
          "internalType": "bytes[]",
          "name": "pixels",
          "type": "bytes[]"
        }
      ],
      "name": "setBlocks",
      "outputs": [
        {
          "internalType": "uint32",
          "name": "linkNumber",
          "type": "uint32"
        }
      ],
      "stateMutability": "payable",
      "type": "function"
    },
    {
      "inputs": [],
      "name": "symbol",
      "outputs": [
        {
          "internalType": "string",
          "name": "",
          "type": "string"
        }
      ],
      "stateMutability": "view",
      "type": "function"
    },
    {
      "inputs": [],
      "name": "totalSupply",
      "outputs": [
        {
          "internalType": "uint256",
          "name": "",
          "type": "uint256"
        }
      ],
      "stateMutability": "view",
      "type": "function"
    },
    {
      "inputs": [
        {
          "internalType": "address",
          "name": "to",
          "type": "address"
        },
        {
          "internalType": "uint256",
          "name": "amount",
          "type": "uint256"
        }
      ],
      "name": "transfer",
      "outputs": [
        {
          "internalType": "bool",
          "name": "",
          "type": "bool"
        }
      ],
      "stateMutability": "nonpayable",
      "type": "function"
    },
    {
      "inputs": [
        {
          "internalType": "address",
          "name": "from",
          "type": "address"
        },
        {
          "internalType": "address",
          "name": "to",
          "type": "address"
        },
        {
          "internalType": "uint256",
          "name": "amount",
          "type": "uint256"
        }
      ],
      "name": "transferFrom",
      "outputs": [
        {
          "internalType": "bool",
          "name": "",
          "type": "bool"
        }
      ],
      "stateMutability": "nonpayable",
      "type": "function"
    },
    {
      "inputs": [
        {
          "internalType": "address",
          "name": "newOwner",
          "type": "address"
        },
        {
          "internalType": "bool",
          "name": "direct",
          "type": "bool"
        },
        {
          "internalType": "bool",
          "name": "renounce",
          "type": "bool"
        }
      ],
      "name": "transferOwnership",
      "outputs": [],
      "stateMutability": "nonpayable",
      "type": "function"
    },
    {
      "inputs": [
        {
          "internalType": "uint256",
          "name": "",
          "type": "uint256"
        }
      ],
      "name": "updates",
      "outputs": [
        {
          "internalType": "uint256",
          "name": "",
          "type": "uint256"
        }
      ],
      "stateMutability": "view",
      "type": "function"
    },
    {
      "inputs": [],
      "name": "updatesCount",
      "outputs": [
        {
          "internalType": "uint256",
          "name": "",
          "type": "uint256"
        }
      ],
      "stateMutability": "view",
      "type": "function"
    },
    {
      "inputs": [
        {
          "internalType": "contract IERC20",
          "name": "token",
          "type": "address"
        }
      ],
      "name": "withdraw",
      "outputs": [],
      "stateMutability": "nonpayable",
      "type": "function"
    },
    {
      "stateMutability": "payable",
      "type": "receive"
    }
  ],
  "transactionHash": "0x97c804842dd3c5018314511a585643a2f0e8eb350fe9962a3d3b12a9718434d4",
  "args": [],
  "solcInputHash": "25db29db8ac6485c7b210126cfbbb8cd",
  "bytecode": "0x60e06040523480156200001157600080fd5b504660a0819052620000238162000102565b60805250600480546001600160a01b031916339081179091556040516000907f8be0079c531659141344cd1fd0a4f28419497f9722a3daafe3b4186f6b6457e0908290a362127500420160c0526040805160608101825260008183018181528252825160208181019094528181528383015260078054600181018255915281518051929360029092027fa66cc928b5edb82af9bd49922954155ab7b0942694bea4ce44661d9a8736c6880192620000de928492019062000158565b506020828101518051620000f9926001850192019062000158565b50505062000213565b60007f47e79534a245952e8b16893a336b85a3d9ea9fa8c573f3d803afb92a7946921882306040516020016200013b93929190620001f4565b604051602081830303815290604052805190602001209050919050565b828054600181600116156101000203166002900490600052602060002090601f016020900481019282601f106200019b57805160ff1916838001178555620001cb565b82800160010185558215620001cb579182015b82811115620001cb578251825591602001919060010190620001ae565b50620001d9929150620001dd565b5090565b5b80821115620001d95760008155600101620001de565b92835260208301919091526001600160a01b0316604082015260600190565b60805160a05160c05161416062000254600039806109ee5280610d9d52806110045280611a125280611ad8525080611fde52508061201752506141606000f3fe608060405260043610620002235760003560e01c80637c516e941162000127578063b4c2f72711620000af578063d2423b511162000079578063d2423b511462000646578063d505accf146200065d578063dd62ed3e1462000682578063e30c397814620006a7578063ee687c7514620006bf576200022b565b8063b4c2f72714620005af578063b544bf8314620005d4578063c0ffdba014620005ec578063c50fcc361462000620576200022b565b80639b8e9b5e11620000f15780639b8e9b5e1462000516578063a8d43931146200052e578063a9059cbb1462000555578063b1a867d5146200057a576200022b565b80637c516e94146200048d5780637ecebe0014620004b25780638da5cb5b14620004d757806395d89b4114620004fe576200022b565b80634adc8a6e11620001ab5780635a4dd47d11620001755780635a4dd47d14620003e6578063697f92f4146200040b57806370a0823114620004305780637b46a39c1462000455576200022b565b80634adc8a6e146200035d5780634e71e0c8146200037557806351cff8d9146200038d57806354328c0e14620003b2576200022b565b806323b872dd11620001ed57806323b872dd14620002e257806323f7d4f71462000307578063313ce567146200031e5780633644e5151462000345576200022b565b806306fdde031462000230578063078dfbe71462000260578063095ea7b3146200028757806318160ddd14620002bb576200022b565b366200022b57005b600080fd5b3480156200023d57600080fd5b5062000248620006d7565b60405162000257919062002cc1565b60405180910390f35b3480156200026d57600080fd5b50620002856200027f36600462002580565b620006f8565b005b3480156200029457600080fd5b50620002ac620002a6366004620025d1565b620007f1565b60405162000257919062002c3c565b348015620002c857600080fd5b50620002d36200085e565b60405162000257919062002c47565b348015620002ef57600080fd5b50620002ac62000301366004620024c6565b62000864565b62000285620003183660046200275f565b620009ec565b3480156200032b57600080fd5b506200033662000d85565b604051620002579190620030ad565b3480156200035257600080fd5b50620002d362000d8a565b3480156200036a57600080fd5b506200028562000d9b565b3480156200038257600080fd5b506200028562000e8f565b3480156200039a57600080fd5b5062000285620003ac3660046200246a565b62000f20565b348015620003bf57600080fd5b50620003d7620003d13660046200264f565b62001097565b60405162000257919062002ac3565b348015620003f357600080fd5b50620002d3620004053660046200293d565b620014e6565b3480156200041857600080fd5b50620002d36200042a3660046200264f565b62001535565b3480156200043d57600080fd5b50620002d36200044f3660046200246a565b62001577565b3480156200046257600080fd5b506200047a620004743660046200293d565b62001589565b6040516200025795949392919062002a56565b3480156200049a57600080fd5b5062000285620004ac36600462002810565b6200166c565b348015620004bf57600080fd5b50620002d3620004d13660046200246a565b620016e4565b348015620004e457600080fd5b50620004ef620016f6565b60405162000257919062002a01565b3480156200050b57600080fd5b506200024862001705565b3480156200052357600080fd5b50620004ef62001726565b3480156200053b57600080fd5b506200054662001735565b60405162000257919062002c00565b3480156200056257600080fd5b50620002ac62000574366004620025d1565b6200179f565b3480156200058757600080fd5b506200059f620005993660046200293d565b6200189c565b6040516200025792919062002cd6565b348015620005bc57600080fd5b50620002d3620005ce3660046200293d565b620019f0565b348015620005e157600080fd5b50620002d362001a10565b348015620005f957600080fd5b50620006116200060b3660046200293d565b62001a34565b60405162000257919062002bba565b620006376200063136600462002693565b62001ad4565b6040516200025791906200309c565b6200028562000657366004620025ff565b62001c1c565b3480156200066a57600080fd5b50620002856200067c3660046200250b565b62001cee565b3480156200068f57600080fd5b50620002d3620006a136600462002489565b62001ea1565b348015620006b457600080fd5b50620004ef62001ebe565b348015620006cc57600080fd5b50620002d362001ecd565b60405180604001604052806005815260200164141a5e195b60da1b81525081565b6004546001600160a01b031633146200072e5760405162461bcd60e51b8152600401620007259062002ed1565b60405180910390fd5b8115620007d0576001600160a01b0383161515806200074a5750805b620007695760405162461bcd60e51b8152600401620007259062002d9e565b6004546040516001600160a01b038086169216907f8be0079c531659141344cd1fd0a4f28419497f9722a3daafe3b4186f6b6457e090600090a3600480546001600160a01b0385166001600160a01b031991821617909155600580549091169055620007ec565b600580546001600160a01b0319166001600160a01b0385161790555b505050565b3360008181526001602090815260408083206001600160a01b038716808552925280832085905551919290917f8c5be1e5ebec7d5bd14f71427d1e84f3dd0314c0f7b2291e5b200ac8c7c3b925906200084c90869062002c47565b60405180910390a35060015b92915050565b60035481565b6000811562000995576001600160a01b03841660009081526020819052604090205482811015620008a95760405162461bcd60e51b8152600401620007259062002ffe565b836001600160a01b0316856001600160a01b03161462000993576001600160a01b038516600090815260016020908152604080832033845290915290205460001981146200093d5783811015620009145760405162461bcd60e51b8152600401620007259062002e72565b6001600160a01b0386166000908152600160209081526040808320338452909152902084820390555b6001600160a01b038516620009665760405162461bcd60e51b8152600401620007259062002d6e565b506001600160a01b0380861660009081526020819052604080822086850390559186168152208054840190555b505b826001600160a01b0316846001600160a01b03167fddf252ad1be2c89b69c2b068fc378daa952ba7f163c4a11628f55a4df523b3ef84604051620009da919062002c47565b60405180910390a35060019392505050565b7f0000000000000000000000000000000000000000000000000000000000000000421062000a1957600080fd5b600062000a27868662001535565b90508034101562000a4c5760405162461bcd60e51b8152600401620007259062002e04565b600062000a5a823462001ed4565b9050801562000ae8576000336001600160a01b03168260405162000a7e90620029fe565b60006040518083038185875af1925050503d806000811462000abd576040519150601f19603f3d011682016040523d82523d6000602084013e62000ac2565b606091505b505090508062000ae65760405162461bcd60e51b8152600401620007259062002f3b565b505b60005b8681101562000d5b57600088888381811062000b0357fe5b9050602002013590506000600882612710811062000b1d57fe5b60030201546001600160a01b0316600883612710811062000b3a57fe5b6003020160010154604051614e20916001600160801b03169062000b5e90620029fe565b600060405180830381858888f193505050503d806000811462000b9e576040519150601f19603f3d011682016040523d82523d6000602084013e62000ba3565b606091505b50508091505062000bb36200225d565b33815262000bcb62000bc584620014e6565b62001efa565b6001600160801b0316602082015263ffffffff8916606082015262000bf04262001f26565b63ffffffff16604082015287878581811062000c0857fe5b905060200281019062000c1c9190620030bb565b8080601f016020809104026020016040519081016040528093929190818152602001838380828437600092019190915250505050608082015280600884612710811062000c6557fe5b82516003919091029190910180546001600160a01b0319166001600160a01b03909216919091178155602080830151600183018054604086015160608701516fffffffffffffffffffffffffffffffff199092166001600160801b039094169390931763ffffffff60801b1916600160801b63ffffffff948516021763ffffffff60a01b1916600160a01b93909116929092029190911790556080830151805162000d1792600285019201906200228d565b50506175388054600181810183556000929092527f0cca2c7364c49b86c63a93df6e4e5ef45457e460770dff24eb5a9fa3456ba38901949094555050500162000aeb565b5062000d7c3362000d768868056bc75e2d6310000062001f4f565b62001f8b565b50505050505050565b601281565b600062000d9662001fd9565b905090565b7f000000000000000000000000000000000000000000000000000000000000000042101562000dc957600080fd5b6004546040516000916001600160a01b031690479062000de990620029fe565b60006040518083038185875af1925050503d806000811462000e28576040519150601f19603f3d011682016040523d82523d6000602084013e62000e2d565b606091505b5050809150503060405162000e42906200230e565b62000e4e919062002a01565b604051809103906000f08015801562000e6b573d6000803e3d6000fd5b50600680546001600160a01b0319166001600160a01b039290921691909117905550565b6005546001600160a01b031633811462000ebd5760405162461bcd60e51b8152600401620007259062002f06565b6004546040516001600160a01b038084169216907f8be0079c531659141344cd1fd0a4f28419497f9722a3daafe3b4186f6b6457e090600090a3600480546001600160a01b039092166001600160a01b0319928316179055600580549091169055565b6004546001600160a01b0316331462000f4d5760405162461bcd60e51b8152600401620007259062002ed1565b6001600160a01b038116156200100257600480546040516370a0823160e01b815262000ffc926001600160a01b03928316928516916370a082319162000f969130910162002a01565b60206040518083038186803b15801562000faf57600080fd5b505afa15801562000fc4573d6000803e3d6000fd5b505050506040513d601f19601f8201168201806040525081019062000fea919062002956565b6001600160a01b03841691906200203d565b62001094565b7f000000000000000000000000000000000000000000000000000000000000000042101562001094576004546040516000916001600160a01b03169047906200104b90620029fe565b60006040518083038185875af1925050503d80600081146200108a576040519150601f19603f3d011682016040523d82523d6000602084013e6200108f565b606091505b505050505b50565b60608167ffffffffffffffff81118015620010b157600080fd5b50604051908082528060200260200182016040528015620010ef57816020015b620010db6200231c565b815260200190600190039081620010d15790505b50905060005b82811015620014df57620011086200225d565b60088585848181106200111757fe5b9050602002013561271081106200112a57fe5b6040805160a0810182526003929092029290920180546001600160a01b031682526001808201546001600160801b038116602080860191909152600160801b820463ffffffff90811686880152600160a01b90920490911660608501526002808401805487516101009582161595909502600019011691909104601f81018390048302840183019096528583529394929360808601939091830182828015620012175780601f10620011eb5761010080835404028352916020019162001217565b820191906000526020600020905b815481529060010190602001808311620011f957829003601f168201915b50505050508152505090506200122c62002377565b6007826060015163ffffffff16815481106200124457fe5b60009182526020918290206040805160029384029092018054600181161561010002600019011693909304601f81018590049094028201606090810182529082018481529193849291849190840182828015620012e55780601f10620012b957610100808354040283529160200191620012e5565b820191906000526020600020905b815481529060010190602001808311620012c757829003601f168201915b50505050508152602001600182018054600181600116156101000203166002900480601f0160208091040260200160405190810160405280929190818152602001828054600181600116156101000203166002900480156200138b5780601f106200135f576101008083540402835291602001916200138b565b820191906000526020600020905b8154815290600101906020018083116200136d57829003601f168201915b5050505050815250509050620013b4868685818110620013a757fe5b9050602002013562001f26565b848481518110620013c157fe5b602090810291909101015163ffffffff909116905281518451859085908110620013e757fe5b6020026020010151602001906001600160a01b031690816001600160a01b03168152505081602001518484815181106200141d57fe5b6020026020010151604001906001600160801b031690816001600160801b03168152505081604001518484815181106200145357fe5b60200260200101516060019063ffffffff16908163ffffffff168152505080600001518484815181106200148357fe5b6020026020010151608001819052508060200151848481518110620014a457fe5b602002602001015160a001819052508160800151848481518110620014c557fe5b602090810291909101015160c001525050600101620010f5565b5092915050565b6000806008836127108110620014f857fe5b60030201600101546001600160801b03169050801562001525576200151f81600262001f4f565b6200152e565b662386f26fc100005b9392505050565b6000805b82811015620014df576200156c620015648585848181106200155757fe5b90506020020135620014e6565b839062002139565b915060010162001539565b60006020819052908152604090205481565b60088161271081106200159857fe5b60030201805460018083015460028085018054604080516020601f6000199885161561010002989098019093169490940495860182900482028401820190528483526001600160a01b0390951696506001600160801b0383169563ffffffff600160801b8504811696600160a01b90950416949093830182828015620016625780601f10620016365761010080835404028352916020019162001662565b820191906000526020600020905b8154815290600101906020018083116200164457829003601f168201915b5050505050905085565b60405163d505accf60e01b81526001600160a01b0389169063d505accf90620016a6908a908a908a908a908a908a908a9060040162002a15565b600060405180830381600087803b158015620016c157600080fd5b505af1158015620016d6573d6000803e3d6000fd5b505050505050505050505050565b60026020526000908152604090205481565b6004546001600160a01b031681565b60405180604001604052806005815260200164141256115360da1b81525081565b6006546001600160a01b031681565b6200173f62002391565b60005b6127108110156200179b5760088161271081106200175c57fe5b6003020160010160109054906101000a900463ffffffff16828261271081106200178257fe5b63ffffffff909216602092909202015260010162001742565b5090565b600081151580620017b85750336001600160a01b038416145b1562001857573360009081526020819052604090205482811015620017f15760405162461bcd60e51b8152600401620007259062002ffe565b336001600160a01b0385161462001855576001600160a01b0384166200182b5760405162461bcd60e51b8152600401620007259062002d6e565b3360009081526020819052604080822085840390556001600160a01b038616825290208054840190555b505b826001600160a01b0316336001600160a01b03167fddf252ad1be2c89b69c2b068fc378daa952ba7f163c4a11628f55a4df523b3ef846040516200084c919062002c47565b60078181548110620018aa57fe5b60009182526020918290206002918202018054604080516001831615610100026000190190921693909304601f810185900485028201850190935282815290935091839190830182828015620019445780601f10620019185761010080835404028352916020019162001944565b820191906000526020600020905b8154815290600101906020018083116200192657829003601f168201915b505050505090806001018054600181600116156101000203166002900480601f016020809104026020016040519081016040528092919081815260200182805460018160011615610100020316600290048015620019e65780601f10620019ba57610100808354040283529160200191620019e6565b820191906000526020600020905b815481529060010190602001808311620019c857829003601f168201915b5050505050905082565b6175388181548110620019ff57fe5b600091825260209091200154905081565b7f000000000000000000000000000000000000000000000000000000000000000081565b6175385460609082900367ffffffffffffffff8111801562001a5557600080fd5b5060405190808252806020026020018201604052801562001a80578160200160208202803683370190505b509050815b6175385481101562001ace57617538818154811062001aa057fe5b9060005260206000200154828483038151811062001aba57fe5b602090810291909101015260010162001a85565b50919050565b60007f0000000000000000000000000000000000000000000000000000000000000000421062001b0357600080fd5b62001b0d62002377565b87878080601f016020809104026020016040519081016040528093929190818152602001838380828437600092019190915250505090825250604080516020601f8801819004810282018101909252868152908790879081908401838280828437600092019190915250505050602082015260075462001b8d9062001f26565b6007805460018101825560009190915282518051929450839260029092027fa66cc928b5edb82af9bd49922954155ab7b0942694bea4ce44661d9a8736c688019162001be2918391602091909101906200228d565b50602082810151805162001bfd92600185019201906200228d565b50505062001c0f8a8a848787620009ec565b5098975050505050505050565b60005b8281101562001ce857600060603086868581811062001c3a57fe5b905060200281019062001c4e9190620030bb565b60405162001c5e929190620029a7565b600060405180830381855af49150503d806000811462001c9b576040519150601f19603f3d011682016040523d82523d6000602084013e62001ca0565b606091505b50915091508115801562001cb15750835b1562001cdd5762001cc2816200215f565b60405162461bcd60e51b815260040162000725919062002cc1565b505060010162001c1f565b50505050565b6001600160a01b03871662001d175760405162461bcd60e51b8152600401620007259062002f90565b83421062001d395760405162461bcd60e51b8152600401620007259062002ea9565b6001600160a01b038716600081815260026020908152604091829020805460018181019092559251909262001dbb9262001d9f927f6e71edae12b1b97f4d1f60370fef10105fa2faae0126114a169c64845d6126c9928e928e928e92918e910162002c50565b60405160208183030381529060405280519060200120620021cb565b8585856040516000815260200160405260405162001ddd949392919062002ca3565b6020604051602081039080840390855afa15801562001e00573d6000803e3d6000fd5b505050602060405103516001600160a01b03161462001e335760405162461bcd60e51b8152600401620007259062003065565b6001600160a01b038088166000818152600160209081526040808320948b168084529490915290819020889055517f8c5be1e5ebec7d5bd14f71427d1e84f3dd0314c0f7b2291e5b200ac8c7c3b9259062001e9090899062002c47565b60405180910390a350505050505050565b600160209081526000928352604080842090915290825290205481565b6005546001600160a01b031681565b6175385490565b80820382811115620008585760405162461bcd60e51b8152600401620007259062002d08565b60006001600160801b038211156200179b5760405162461bcd60e51b8152600401620007259062002dcd565b600063ffffffff8211156200179b5760405162461bcd60e51b8152600401620007259062002fc7565b600081158062001f6c5750508082028282828162001f6957fe5b04145b620008585760405162461bcd60e51b815260040162000725906200302e565b6003548082019081101562001fb45760405162461bcd60e51b8152600401620007259062002f69565b6003556001600160a01b03909116600090815260208190526040902080549091019055565b6000467f0000000000000000000000000000000000000000000000000000000000000000811462002015576200200f8162002224565b62002037565b7f00000000000000000000000000000000000000000000000000000000000000005b91505090565b60006060846001600160a01b031663a9059cbb60e01b85856040516024016200206892919062002aaa565b60408051601f198184030181529181526020820180516001600160e01b03166001600160e01b0319909416939093179092529051620020a89190620029b7565b6000604051808303816000865af19150503d8060008114620020e7576040519150601f19603f3d011682016040523d82523d6000602084013e620020ec565b606091505b50915091508180156200211a5750805115806200211a5750808060200190518101906200211a9190620027f1565b6200108f5760405162461bcd60e51b8152600401620007259062002d37565b81810181811015620008585760405162461bcd60e51b8152600401620007259062002e3b565b6060604482511015620021a7575060408051808201909152601d81527f5472616e73616374696f6e2072657665727465642073696c656e746c790000006020820152620021c6565b60048201915081806020019051810190620021c391906200289a565b90505b919050565b600060405180604001604052806002815260200161190160f01b815250620021f262001fd9565b836040516020016200220793929190620029d5565b604051602081830303815290604052805190602001209050919050565b60007f47e79534a245952e8b16893a336b85a3d9ea9fa8c573f3d803afb92a794692188230604051602001620022079392919062002c84565b6040805160a081018252600080825260208201819052918101829052606080820192909252608081019190915290565b828054600181600116156101000203166002900490600052602060002090601f016020900481019282601f10620022d057805160ff191683800117855562002300565b8280016001018555821562002300579182015b8281111562002300578251825591602001919060010190620022e3565b506200179b929150620023b2565b610fd3806200315883390190565b6040518060e00160405280600063ffffffff16815260200160006001600160a01b0316815260200160006001600160801b03168152602001600063ffffffff1681526020016060815260200160608152602001606081525090565b604051806040016040528060608152602001606081525090565b604051806204e2000160405280612710906020820280368337509192915050565b5b808211156200179b5760008155600101620023b3565b60008083601f840112620023db578182fd5b50813567ffffffffffffffff811115620023f3578182fd5b60208301915083602080830285010111156200240e57600080fd5b9250929050565b60008083601f84011262002427578182fd5b50813567ffffffffffffffff8111156200243f578182fd5b6020830191508360208285010111156200240e57600080fd5b803560ff811681146200085857600080fd5b6000602082840312156200247c578081fd5b81356200152e8162003132565b600080604083850312156200249c578081fd5b8235620024a98162003132565b91506020830135620024bb8162003132565b809150509250929050565b600080600060608486031215620024db578081fd5b8335620024e88162003132565b92506020840135620024fa8162003132565b929592945050506040919091013590565b600080600080600080600060e0888a03121562002526578283fd5b8735620025338162003132565b96506020880135620025458162003132565b95506040880135945060608801359350620025648960808a0162002458565b925060a0880135915060c0880135905092959891949750929550565b60008060006060848603121562002595578283fd5b8335620025a28162003132565b92506020840135620025b48162003148565b91506040840135620025c68162003148565b809150509250925092565b60008060408385031215620025e4578182fd5b8235620025f18162003132565b946020939093013593505050565b60008060006040848603121562002614578283fd5b833567ffffffffffffffff8111156200262b578384fd5b6200263986828701620023c9565b9094509250506020840135620025c68162003148565b6000806020838503121562002662578182fd5b823567ffffffffffffffff81111562002679578283fd5b6200268785828601620023c9565b90969095509350505050565b6000806000806000806000806080898b031215620026af578081fd5b883567ffffffffffffffff80821115620026c7578283fd5b620026d58c838d01620023c9565b909a50985060208b0135915080821115620026ee578283fd5b620026fc8c838d0162002415565b909850965060408b013591508082111562002715578283fd5b620027238c838d0162002415565b909650945060608b01359150808211156200273c578283fd5b506200274b8b828c01620023c9565b999c989b5096995094979396929594505050565b60008060008060006060868803121562002777578283fd5b853567ffffffffffffffff808211156200278f578485fd5b6200279d89838a01620023c9565b90975095506020880135915063ffffffff82168214620027bb578485fd5b90935060408701359080821115620027d1578283fd5b50620027e088828901620023c9565b969995985093965092949392505050565b60006020828403121562002803578081fd5b81516200152e8162003148565b600080600080600080600080610100898b0312156200282d578182fd5b88356200283a8162003132565b975060208901356200284c8162003132565b965060408901356200285e8162003132565b955060608901359450608089013593506200287d8a60a08b0162002458565b925060c0890135915060e089013590509295985092959890939650565b600060208284031215620028ac578081fd5b815167ffffffffffffffff80821115620028c4578283fd5b818401915084601f830112620028d8578283fd5b815181811115620028e7578384fd5b604051601f8201601f19168101602001838111828210171562002908578586fd5b60405281815283820160200187101562002920578485fd5b6200293382602083016020870162003103565b9695505050505050565b6000602082840312156200294f578081fd5b5035919050565b60006020828403121562002968578081fd5b5051919050565b600081518084526200298981602086016020860162003103565b601f01601f19169290920160200192915050565b63ffffffff169052565b6000828483379101908152919050565b60008251620029cb81846020870162003103565b9190910192915050565b60008451620029e981846020890162003103565b91909101928352506020820152604001919050565b90565b6001600160a01b0391909116815260200190565b6001600160a01b0397881681529590961660208601526040850193909352606084019190915260ff16608083015260a082015260c081019190915260e00190565b6001600160a01b03861681526001600160801b038516602082015263ffffffff84811660408301528316606082015260a06080820181905260009062002a9f908301846200296f565b979650505050505050565b6001600160a01b03929092168252602082015260400190565b60208082528251828201819052600091906040908185019080840286018301878501865b8381101562002bac57888303603f190185528151805163ffffffff168452878101516001600160a01b031688850152868101516001600160801b03168785015260608082015160e0919062002b3f828801826200299d565b5050608080830151828288015262002b5a838801826200296f565b9250505060a0808301518683038288015262002b7783826200296f565b9250505060c0808301519250858203818701525062002b9781836200296f565b96890196945050509086019060010162002ae7565b509098975050505050505050565b6020808252825182820181905260009190848201906040850190845b8181101562002bf45783518352928401929184019160010162002bd6565b50909695505050505050565b6204e2008101818360005b61271081101562002c3357815163ffffffff1683526020928301929091019060010162002c0b565b50505092915050565b901515815260200190565b90815260200190565b9586526001600160a01b0394851660208701529290931660408501526060840152608083019190915260a082015260c00190565b92835260208301919091526001600160a01b0316604082015260600190565b93845260ff9290921660208401526040830152606082015260800190565b6000602082526200152e60208301846200296f565b60006040825262002ceb60408301856200296f565b828103602084015262002cff81856200296f565b95945050505050565b602080825260159082015274426f72696e674d6174683a20556e646572666c6f7760581b604082015260600190565b6020808252601c908201527f426f72696e6745524332303a205472616e73666572206661696c656400000000604082015260600190565b60208082526016908201527545524332303a206e6f207a65726f206164647265737360501b604082015260600190565b6020808252601590820152744f776e61626c653a207a65726f206164647265737360581b604082015260600190565b6020808252601c908201527f426f72696e674d6174683a2075696e74313238204f766572666c6f7700000000604082015260600190565b60208082526017908201527f506978656c3a206e6f7420656e6f7567682066756e6473000000000000000000604082015260600190565b60208082526018908201527f426f72696e674d6174683a20416464204f766572666c6f770000000000000000604082015260600190565b60208082526018908201527f45524332303a20616c6c6f77616e636520746f6f206c6f770000000000000000604082015260600190565b6020808252600e908201526d115490cc8c0e88115e1c1a5c995960921b604082015260600190565b6020808252818101527f4f776e61626c653a2063616c6c6572206973206e6f7420746865206f776e6572604082015260600190565b6020808252818101527f4f776e61626c653a2063616c6c657220213d2070656e64696e67206f776e6572604082015260600190565b602080825260149082015273141a5e195b0e881c99599d5b990819985a5b195960621b604082015260600190565b6020808252600d908201526c4d696e74206f766572666c6f7760981b604082015260600190565b60208082526018908201527f45524332303a204f776e65722063616e6e6f7420626520300000000000000000604082015260600190565b6020808252601b908201527f426f72696e674d6174683a2075696e743332204f766572666c6f770000000000604082015260600190565b60208082526016908201527545524332303a2062616c616e636520746f6f206c6f7760501b604082015260600190565b60208082526018908201527f426f72696e674d6174683a204d756c204f766572666c6f770000000000000000604082015260600190565b60208082526018908201527f45524332303a20496e76616c6964205369676e61747572650000000000000000604082015260600190565b63ffffffff91909116815260200190565b60ff91909116815260200190565b6000808335601e19843603018112620030d2578283fd5b83018035915067ffffffffffffffff821115620030ed578283fd5b6020019150368190038213156200240e57600080fd5b60005b838110156200312057818101518382015260200162003106565b8381111562001ce85750506000910152565b6001600160a01b03811681146200109457600080fd5b80151581146200109457600080fdfe608060405234801561001057600080fd5b50604051610fd3380380610fd383398101604081905261002f916100cf565b600380546001600160a01b0319166001600160a01b038316908117909155604080516318160ddd60e01b81529051600a92916318160ddd916004808301926020929190829003018186803b15801561008657600080fd5b505afa15801561009a573d6000803e3d6000fd5b505050506040513d601f19601f820116820180604052508101906100be91906100fd565b816100c557fe5b0460025550610115565b6000602082840312156100e0578081fd5b81516001600160a01b03811681146100f6578182fd5b9392505050565b60006020828403121561010e578081fd5b5051919050565b610eaf806101246000396000f3fe60806040526004361061011f5760003560e01c806370a08231116100a0578063a6f2ae3a11610064578063a6f2ae3a146102da578063b88d4fde146102e2578063c87b56dd146102f5578063e534155d14610315578063e985e9c51461032a5761011f565b806370a082311461025b5780638cd295c21461027b57806395d89b4114610290578063a035b1fe146102a5578063a22cb465146102ba5761011f565b806319e1fca4116100e757806319e1fca4146101e057806323b872dd146101f55780632637588e1461020857806342842e0e146102285780636352211e1461023b5761011f565b806301ffc9a71461012457806306fdde031461015a578063081812fc1461017c578063095ea7b3146101a957806318160ddd146101be575b600080fd5b34801561013057600080fd5b5061014461013f366004610ba6565b61034a565b6040516101519190610c97565b60405180910390f35b34801561016657600080fd5b5061016f610381565b6040516101519190610ca2565b34801561018857600080fd5b5061019c610197366004610bde565b6103b1565b6040516101519190610c46565b6101bc6101b7366004610b7c565b6103eb565b005b3480156101ca57600080fd5b506101d361042c565b6040516101519190610e42565b3480156101ec57600080fd5b5061019c610450565b6101bc610203366004610a3b565b61045f565b34801561021457600080fd5b50610144610223366004610a07565b61046f565b6101bc610236366004610a3b565b61048f565b34801561024757600080fd5b5061019c610256366004610bde565b6104aa565b34801561026757600080fd5b506101d36102763660046109e5565b610503565b34801561028757600080fd5b5061019c610553565b34801561029c57600080fd5b5061016f610562565b3480156102b157600080fd5b506101d3610584565b3480156102c657600080fd5b506101bc6102d5366004610b41565b61058a565b6101bc6105c2565b6101bc6102f0366004610a7b565b610721565b34801561030157600080fd5b5061016f610310366004610bde565b6107ed565b34801561032157600080fd5b5061019c610846565b34801561033657600080fd5b50610144610345366004610a07565b610855565b60006001600160e01b031982166301ffc9a760e01b148061037b57506380ac58cd60e01b6001600160e01b03198316145b92915050565b604051806040016040528060148152602001735468652043616e766173206f6620506978656c7360601b81525081565b600081156103da5760405162461bcd60e51b81526004016103d190610d6e565b60405180910390fd5b50506001546001600160a01b031690565b80156104095760405162461bcd60e51b81526004016103d190610d6e565b50600180546001600160a01b0319166001600160a01b0392909216919091179055565b600080546001600160a01b031615610445576001610448565b60005b60ff16905090565b6001546001600160a01b031681565b61046a838383610883565b505050565b600460209081526000928352604080842090915290825290205460ff1681565b61046a83838360405180602001604052806000815250610721565b600081156104ca5760405162461bcd60e51b81526004016103d190610d6e565b6000546001600160a01b03166104f25760405162461bcd60e51b81526004016103d190610dc1565b50506000546001600160a01b031690565b60006001600160a01b03821661052b5760405162461bcd60e51b81526004016103d190610d98565b6000546001600160a01b0383811691161461054757600061054a565b60015b60ff1692915050565b6003546001600160a01b031681565b6040518060400160405280600681526020016543414e56415360d01b81525081565b60025481565b3360009081526004602090815260408083206001600160a01b0395909516835293905291909120805460ff1916911515919091179055565b60025434146105e35760405162461bcd60e51b81526004016103d190610e1a565b600080546002546001600160a01b039091169060969061060490606e610991565b8161060b57fe5b04614e209060405161061c90610c43565b600060405180830381858888f193505050503d806000811461065a576040519150601f19603f3d011682016040523d82523d6000602084013e61065f565b606091505b50506003546002549192506001600160a01b031690609690610682906028610991565b8161068957fe5b04614e209060405161069a90610c43565b600060405180830381858888f193505050503d80600081146106d8576040519150601f19603f3d011682016040523d82523d6000602084013e6106dd565b606091505b505080915050806107005760405162461bcd60e51b81526004016103d190610ce3565b50600080546001600160a01b03199081163317909155600180549091169055565b61072c848484610883565b610735836109c8565b156107e757604051630a85bd0160e11b808252906001600160a01b0385169063150b7a029061076e903390899088908890600401610c5a565b602060405180830381600087803b15801561078857600080fd5b505af115801561079c573d6000803e3d6000fd5b505050506040513d601f19601f820116820180604052508101906107c09190610bc2565b6001600160e01b031916146107e75760405162461bcd60e51b81526004016103d190610d1a565b50505050565b6060811561080d5760405162461bcd60e51b81526004016103d190610d6e565b505060408051808201909152601d81527f68747470733a2f2f706978656c2e696e632f63616e7661732e6a736f6e000000602082015290565b6000546001600160a01b031681565b6001600160a01b03918216600090815260046020908152604080832093909416825291909152205460ff1690565b80156108a15760405162461bcd60e51b81526004016103d190610d6e565b6000546001600160a01b038481169116146108ce5760405162461bcd60e51b81526004016103d190610d46565b6001600160a01b0383163314806108f257506001546001600160a01b038481169116145b806109245750600080546001600160a01b039081168252600460209081526040808420928716845291905290205460ff165b6109405760405162461bcd60e51b81526004016103d190610cb5565b6001600160a01b0382166109665760405162461bcd60e51b81526004016103d190610d98565b50600080546001600160a01b039092166001600160a01b031992831617905560018054909116905550565b60008115806109ac575050808202828282816109a957fe5b04145b61037b5760405162461bcd60e51b81526004016103d190610de3565b3b151590565b80356001600160a01b038116811461037b57600080fd5b6000602082840312156109f6578081fd5b610a0083836109ce565b9392505050565b60008060408385031215610a19578081fd5b610a2384846109ce565b9150610a3284602085016109ce565b90509250929050565b600080600060608486031215610a4f578081fd5b8335610a5a81610e4b565b92506020840135610a6a81610e4b565b929592945050506040919091013590565b60008060008060808587031215610a90578081fd5b610a9a86866109ce565b93506020610aaa878288016109ce565b935060408601359250606086013567ffffffffffffffff80821115610acd578384fd5b818801915088601f830112610ae0578384fd5b813581811115610aee578485fd5b604051601f8201601f1916810185018381118282101715610b0d578687fd5b60405281815283820185018b1015610b23578586fd5b81858501868301379081019093019390935250939692955090935050565b60008060408385031215610b53578182fd5b610b5d84846109ce565b915060208301358015158114610b71578182fd5b809150509250929050565b60008060408385031215610b8e578182fd5b610b9884846109ce565b946020939093013593505050565b600060208284031215610bb7578081fd5b8135610a0081610e63565b600060208284031215610bd3578081fd5b8151610a0081610e63565b600060208284031215610bef578081fd5b5035919050565b600081518084526020825b82811015610c1c578481018201518682018301528101610c01565b82811115610c2c57838284880101525b5080601f19601f8401168601019250505092915050565b90565b6001600160a01b0391909116815260200190565b6001600160a01b0385811682528416602082015260408101839052608060608201819052600090610c8d90830184610bf6565b9695505050505050565b901515815260200190565b600060208252610a006020830184610bf6565b602080825260149082015273151c985b9cd9995c881b9bdd08185b1b1bddd95960621b604082015260600190565b60208082526019908201527f46756e64696e6720706978656c20706f6f6c206661696c656400000000000000604082015260600190565b60208082526012908201527157726f6e672072657475726e2076616c756560701b604082015260600190565b6020808252600e908201526d233937b6903737ba1037bbb732b960911b604082015260600190565b60208082526010908201526f125b9d985b1a59081d1bdad95b88125160821b604082015260600190565b6020808252600f908201526e4e6f207a65726f206164647265737360881b604082015260600190565b60208082526008908201526727379037bbb732b960c11b604082015260600190565b60208082526018908201527f426f72696e674d6174683a204d756c204f766572666c6f770000000000000000604082015260600190565b6020808252600e908201526d56616c756520213d20707269636560901b604082015260600190565b90815260200190565b6001600160a01b0381168114610e6057600080fd5b50565b6001600160e01b031981168114610e6057600080fdfea2646970667358221220eb8a0d1afb0bf1bbe60e6a9256f71b4089b9af87658197fbd5918e31dcf09eec64736f6c634300060c0033a26469706673582212201aeb170cb66824404ebdc597338427a0bc5bfc0c75e98db84c7d4312c525fe3264736f6c634300060c0033",
  "devdoc": {
    "kind": "dev",
    "methods": {
      "approve(address,uint256)": {
        "params": {
          "amount": "The maximum collective amount that `spender` can draw.",
          "spender": "Address of the party that can draw from msg.sender's account."
        },
        "returns": {
          "_0": "(bool) Returns True if approved."
        }
      },
      "batch(bytes[],bool)": {
        "params": {
          "calls": "An array of inputs for each call.",
          "revertOnFail": "If True then reverts after a failed call and stops doing further calls."
        }
      },
      "permit(address,address,uint256,uint256,uint8,bytes32,bytes32)": {
        "params": {
          "deadline": "This permit must be redeemed before this deadline (UTC timestamp in seconds).",
          "owner_": "Address of the owner.",
          "spender": "The address of the spender that gets approved to draw from `owner_`.",
          "value": "The maximum collective amount that `spender` can draw."
        }
      },
      "transfer(address,uint256)": {
        "params": {
          "amount": "of the tokens to move.",
          "to": "The address to move the tokens."
        },
        "returns": {
          "_0": "(bool) Returns True if succeeded."
        }
      },
      "transferFrom(address,address,uint256)": {
        "params": {
          "amount": "The token amount to move.",
          "from": "Address to draw tokens from.",
          "to": "The address to move the tokens."
        },
        "returns": {
          "_0": "(bool) Returns True if succeeded."
        }
      },
      "transferOwnership(address,bool,bool)": {
        "params": {
          "direct": "True if `newOwner` should be set immediately. False if `newOwner` needs to use `claimOwnership`.",
          "newOwner": "Address of the new owner.",
          "renounce": "Allows the `newOwner` to be `address(0)` if `direct` and `renounce` is True. Has no effect otherwise."
        }
      }
    },
    "version": 1
  },
  "userdoc": {
    "kind": "user",
    "methods": {
      "allowance(address,address)": {
        "notice": "owner > spender > allowance mapping."
      },
      "approve(address,uint256)": {
        "notice": "Approves `amount` from sender to be spend by `spender`."
      },
      "balanceOf(address)": {
        "notice": "owner > balance mapping."
      },
      "batch(bytes[],bool)": {
        "notice": "Allows batched call to self (this contract)."
      },
      "claimOwnership()": {
        "notice": "Needs to be called by `pendingOwner` to claim ownership."
      },
      "nonces(address)": {
        "notice": "owner > nonce mapping. Used in `permit`."
      },
      "permit(address,address,uint256,uint256,uint8,bytes32,bytes32)": {
        "notice": "Approves `value` from `owner_` to be spend by `spender`."
      },
      "permitToken(address,address,address,uint256,uint256,uint8,bytes32,bytes32)": {
        "notice": "Call wrapper that performs `ERC20.permit` on `token`. Lookup `IERC20.permit`."
      },
      "transfer(address,uint256)": {
        "notice": "Transfers `amount` tokens from `msg.sender` to `to`."
      },
      "transferFrom(address,address,uint256)": {
        "notice": "Transfers `amount` tokens from `from` to `to`. Caller needs approval for `from`."
      },
      "transferOwnership(address,bool,bool)": {
        "notice": "Transfers ownership to `newOwner`. Either directly or claimable by the new pending owner. Can only be invoked by the current `owner`."
      }
    },
    "version": 1
  },
  "storageLayout": {
    "storage": [
      {
        "astId": 368,
        "contract": "contracts/Pixel.sol:Pixel",
        "label": "balanceOf",
        "offset": 0,
        "slot": "0",
        "type": "t_mapping(t_address,t_uint256)"
      },
      {
        "astId": 376,
        "contract": "contracts/Pixel.sol:Pixel",
        "label": "allowance",
        "offset": 0,
        "slot": "1",
        "type": "t_mapping(t_address,t_mapping(t_address,t_uint256))"
      },
      {
        "astId": 381,
        "contract": "contracts/Pixel.sol:Pixel",
        "label": "nonces",
        "offset": 0,
        "slot": "2",
        "type": "t_mapping(t_address,t_uint256)"
      },
      {
        "astId": 705,
        "contract": "contracts/Pixel.sol:Pixel",
        "label": "totalSupply",
        "offset": 0,
        "slot": "3",
        "type": "t_uint256"
      },
      {
        "astId": 118,
        "contract": "contracts/Pixel.sol:Pixel",
        "label": "owner",
        "offset": 0,
        "slot": "4",
        "type": "t_address"
      },
      {
        "astId": 120,
        "contract": "contracts/Pixel.sol:Pixel",
        "label": "pendingOwner",
        "offset": 0,
        "slot": "5",
        "type": "t_address"
      },
      {
        "astId": 1931,
        "contract": "contracts/Pixel.sol:Pixel",
        "label": "canvas",
        "offset": 0,
        "slot": "6",
        "type": "t_address"
      },
      {
        "astId": 1968,
        "contract": "contracts/Pixel.sol:Pixel",
        "label": "link",
        "offset": 0,
        "slot": "7",
        "type": "t_array(t_struct(BlockLink)1939_storage)dyn_storage"
      },
      {
        "astId": 1972,
        "contract": "contracts/Pixel.sol:Pixel",
        "label": "blk",
        "offset": 0,
        "slot": "8",
        "type": "t_array(t_struct(Block)1950_storage)10000_storage"
      },
      {
        "astId": 1977,
        "contract": "contracts/Pixel.sol:Pixel",
        "label": "updates",
        "offset": 0,
        "slot": "30008",
        "type": "t_array(t_uint256)dyn_storage"
      }
    ],
    "types": {
      "t_address": {
        "encoding": "inplace",
        "label": "address",
        "numberOfBytes": "20"
      },
      "t_array(t_struct(Block)1950_storage)10000_storage": {
        "base": "t_struct(Block)1950_storage",
        "encoding": "inplace",
        "label": "struct Pixel.Block[10000]",
        "numberOfBytes": "960000"
      },
      "t_array(t_struct(BlockLink)1939_storage)dyn_storage": {
        "base": "t_struct(BlockLink)1939_storage",
        "encoding": "dynamic_array",
        "label": "struct Pixel.BlockLink[]",
        "numberOfBytes": "32"
      },
      "t_array(t_uint256)dyn_storage": {
        "base": "t_uint256",
        "encoding": "dynamic_array",
        "label": "uint256[]",
        "numberOfBytes": "32"
      },
      "t_bytes_storage": {
        "encoding": "bytes",
        "label": "bytes",
        "numberOfBytes": "32"
      },
      "t_mapping(t_address,t_mapping(t_address,t_uint256))": {
        "encoding": "mapping",
        "key": "t_address",
        "label": "mapping(address => mapping(address => uint256))",
        "numberOfBytes": "32",
        "value": "t_mapping(t_address,t_uint256)"
      },
      "t_mapping(t_address,t_uint256)": {
        "encoding": "mapping",
        "key": "t_address",
        "label": "mapping(address => uint256)",
        "numberOfBytes": "32",
        "value": "t_uint256"
      },
      "t_string_storage": {
        "encoding": "bytes",
        "label": "string",
        "numberOfBytes": "32"
      },
      "t_struct(Block)1950_storage": {
        "encoding": "inplace",
        "label": "struct Pixel.Block",
        "members": [
          {
            "astId": 1941,
            "contract": "contracts/Pixel.sol:Pixel",
            "label": "owner",
            "offset": 0,
            "slot": "0",
            "type": "t_address"
          },
          {
            "astId": 1943,
            "contract": "contracts/Pixel.sol:Pixel",
            "label": "lastPrice",
            "offset": 0,
            "slot": "1",
            "type": "t_uint128"
          },
          {
            "astId": 1945,
            "contract": "contracts/Pixel.sol:Pixel",
            "label": "lastSold",
            "offset": 16,
            "slot": "1",
            "type": "t_uint32"
          },
          {
            "astId": 1947,
            "contract": "contracts/Pixel.sol:Pixel",
            "label": "link",
            "offset": 20,
            "slot": "1",
            "type": "t_uint32"
          },
          {
            "astId": 1949,
            "contract": "contracts/Pixel.sol:Pixel",
            "label": "pixels",
            "offset": 0,
            "slot": "2",
            "type": "t_bytes_storage"
          }
        ],
        "numberOfBytes": "96"
      },
      "t_struct(BlockLink)1939_storage": {
        "encoding": "inplace",
        "label": "struct Pixel.BlockLink",
        "members": [
          {
            "astId": 1936,
            "contract": "contracts/Pixel.sol:Pixel",
            "label": "url",
            "offset": 0,
            "slot": "0",
            "type": "t_string_storage"
          },
          {
            "astId": 1938,
            "contract": "contracts/Pixel.sol:Pixel",
            "label": "description",
            "offset": 0,
            "slot": "1",
            "type": "t_string_storage"
          }
        ],
        "numberOfBytes": "64"
      },
      "t_uint128": {
        "encoding": "inplace",
        "label": "uint128",
        "numberOfBytes": "16"
      },
      "t_uint256": {
        "encoding": "inplace",
        "label": "uint256",
        "numberOfBytes": "32"
      },
      "t_uint32": {
        "encoding": "inplace",
        "label": "uint32",
        "numberOfBytes": "4"
      }
    }
  }
}