{
  "address": "0x70e0bA845a1A0F2DA3359C97E0285013525FFC49",
  "abi": [
    {
      "inputs": [],
      "stateMutability": "nonpayable",
      "type": "constructor"
    },
    {
      "anonymous": false,
      "inputs": [
        {
          "indexed": true,
          "internalType": "address",
          "name": "_owner",
          "type": "address"
        },
        {
          "indexed": true,
          "internalType": "address",
          "name": "_spender",
          "type": "address"
        },
        {
          "indexed": false,
          "internalType": "uint256",
          "name": "_value",
          "type": "uint256"
        }
      ],
      "name": "Approval",
      "type": "event"
    },
    {
      "anonymous": false,
      "inputs": [
        {
          "indexed": false,
          "internalType": "address",
          "name": "rep",
          "type": "address"
        },
        {
          "indexed": false,
          "internalType": "address",
          "name": "upline",
          "type": "address"
        }
      ],
      "name": "MLMAddRep",
      "type": "event"
    },
    {
      "anonymous": false,
      "inputs": [
        {
          "indexed": false,
          "internalType": "address",
          "name": "rep",
          "type": "address"
        },
        {
          "indexed": false,
          "internalType": "uint128",
          "name": "amount",
          "type": "uint128"
        },
        {
          "indexed": false,
          "internalType": "uint8",
          "name": "lvl",
          "type": "uint8"
        }
      ],
      "name": "MLMEarn",
      "type": "event"
    },
    {
      "anonymous": false,
      "inputs": [
        {
          "indexed": true,
          "internalType": "address",
          "name": "previousOwner",
          "type": "address"
        },
        {
          "indexed": true,
          "internalType": "address",
          "name": "newOwner",
          "type": "address"
        }
      ],
      "name": "OwnershipTransferred",
      "type": "event"
    },
    {
      "anonymous": false,
      "inputs": [
        {
          "indexed": true,
          "internalType": "address",
          "name": "_from",
          "type": "address"
        },
        {
          "indexed": true,
          "internalType": "address",
          "name": "_to",
          "type": "address"
        },
        {
          "indexed": false,
          "internalType": "uint256",
          "name": "_value",
          "type": "uint256"
        }
      ],
      "name": "Transfer",
      "type": "event"
    },
    {
      "inputs": [],
      "name": "DOMAIN_SEPARATOR",
      "outputs": [
        {
          "internalType": "bytes32",
          "name": "",
          "type": "bytes32"
        }
      ],
      "stateMutability": "view",
      "type": "function"
    },
    {
      "inputs": [],
      "name": "LOCK_TIMESTAMP",
      "outputs": [
        {
          "internalType": "uint256",
          "name": "",
          "type": "uint256"
        }
      ],
      "stateMutability": "view",
      "type": "function"
    },
    {
      "inputs": [],
      "name": "START_TIMESTAMP",
      "outputs": [
        {
          "internalType": "uint256",
          "name": "",
          "type": "uint256"
        }
      ],
      "stateMutability": "view",
      "type": "function"
    },
    {
      "inputs": [
        {
          "internalType": "address",
          "name": "",
          "type": "address"
        },
        {
          "internalType": "address",
          "name": "",
          "type": "address"
        }
      ],
      "name": "allowance",
      "outputs": [
        {
          "internalType": "uint256",
          "name": "",
          "type": "uint256"
        }
      ],
      "stateMutability": "view",
      "type": "function"
    },
    {
      "inputs": [
        {
          "internalType": "address",
          "name": "spender",
          "type": "address"
        },
        {
          "internalType": "uint256",
          "name": "amount",
          "type": "uint256"
        }
      ],
      "name": "approve",
      "outputs": [
        {
          "internalType": "bool",
          "name": "",
          "type": "bool"
        }
      ],
      "stateMutability": "nonpayable",
      "type": "function"
    },
    {
      "inputs": [
        {
          "internalType": "address",
          "name": "",
          "type": "address"
        }
      ],
      "name": "balanceOf",
      "outputs": [
        {
          "internalType": "uint256",
          "name": "",
          "type": "uint256"
        }
      ],
      "stateMutability": "view",
      "type": "function"
    },
    {
      "inputs": [
        {
          "internalType": "bytes[]",
          "name": "calls",
          "type": "bytes[]"
        },
        {
          "internalType": "bool",
          "name": "revertOnFail",
          "type": "bool"
        }
      ],
      "name": "batch",
      "outputs": [],
      "stateMutability": "payable",
      "type": "function"
    },
    {
      "inputs": [
        {
          "internalType": "uint256",
          "name": "",
          "type": "uint256"
        }
      ],
      "name": "blk",
      "outputs": [
        {
          "internalType": "address",
          "name": "owner",
          "type": "address"
        },
        {
          "internalType": "uint128",
          "name": "lastPrice",
          "type": "uint128"
        },
        {
          "internalType": "uint32",
          "name": "link",
          "type": "uint32"
        },
        {
          "internalType": "bytes",
          "name": "pixels",
          "type": "bytes"
        }
      ],
      "stateMutability": "view",
      "type": "function"
    },
    {
      "inputs": [],
      "name": "canvas",
      "outputs": [
        {
          "internalType": "address",
          "name": "",
          "type": "address"
        }
      ],
      "stateMutability": "view",
      "type": "function"
    },
    {
      "inputs": [],
      "name": "claimOwnership",
      "outputs": [],
      "stateMutability": "nonpayable",
      "type": "function"
    },
    {
      "inputs": [],
      "name": "decimals",
      "outputs": [
        {
          "internalType": "uint8",
          "name": "",
          "type": "uint8"
        }
      ],
      "stateMutability": "view",
      "type": "function"
    },
    {
      "inputs": [
        {
          "internalType": "address",
          "name": "",
          "type": "address"
        }
      ],
      "name": "downline",
      "outputs": [
        {
          "internalType": "uint128",
          "name": "earnings1",
          "type": "uint128"
        },
        {
          "internalType": "uint128",
          "name": "earnings2",
          "type": "uint128"
        },
        {
          "internalType": "uint128",
          "name": "earnings3",
          "type": "uint128"
        },
        {
          "internalType": "uint32",
          "name": "tier1",
          "type": "uint32"
        },
        {
          "internalType": "uint32",
          "name": "tier2",
          "type": "uint32"
        },
        {
          "internalType": "uint32",
          "name": "tier3",
          "type": "uint32"
        }
      ],
      "stateMutability": "view",
      "type": "function"
    },
    {
      "inputs": [
        {
          "internalType": "uint256[]",
          "name": "blockNumbers",
          "type": "uint256[]"
        }
      ],
      "name": "getBlocks",
      "outputs": [
        {
          "components": [
            {
              "internalType": "uint32",
              "name": "number",
              "type": "uint32"
            },
            {
              "internalType": "address",
              "name": "owner",
              "type": "address"
            },
            {
              "internalType": "uint128",
              "name": "lastPrice",
              "type": "uint128"
            },
            {
              "internalType": "string",
              "name": "url",
              "type": "string"
            },
            {
              "internalType": "string",
              "name": "description",
              "type": "string"
            },
            {
              "internalType": "bytes",
              "name": "pixels",
              "type": "bytes"
            }
          ],
          "internalType": "struct Pixel.ExportBlock[]",
          "name": "blocks",
          "type": "tuple[]"
        }
      ],
      "stateMutability": "view",
      "type": "function"
    },
    {
      "inputs": [
        {
          "internalType": "uint256",
          "name": "blockNumber",
          "type": "uint256"
        }
      ],
      "name": "getCost",
      "outputs": [
        {
          "internalType": "uint256",
          "name": "cost",
          "type": "uint256"
        }
      ],
      "stateMutability": "view",
      "type": "function"
    },
    {
      "inputs": [
        {
          "internalType": "uint256[]",
          "name": "blockNumbers",
          "type": "uint256[]"
        }
      ],
      "name": "getCost",
      "outputs": [
        {
          "internalType": "uint256",
          "name": "cost",
          "type": "uint256"
        }
      ],
      "stateMutability": "view",
      "type": "function"
    },
    {
      "inputs": [
        {
          "internalType": "uint256",
          "name": "since",
          "type": "uint256"
        },
        {
          "internalType": "uint256",
          "name": "max",
          "type": "uint256"
        }
      ],
      "name": "getUpdates",
      "outputs": [
        {
          "internalType": "uint256[]",
          "name": "updatesSince",
          "type": "uint256[]"
        }
      ],
      "stateMutability": "view",
      "type": "function"
    },
    {
      "inputs": [
        {
          "internalType": "uint256",
          "name": "",
          "type": "uint256"
        }
      ],
      "name": "link",
      "outputs": [
        {
          "internalType": "string",
          "name": "url",
          "type": "string"
        },
        {
          "internalType": "string",
          "name": "description",
          "type": "string"
        }
      ],
      "stateMutability": "view",
      "type": "function"
    },
    {
      "inputs": [],
      "name": "mintCanvas",
      "outputs": [],
      "stateMutability": "nonpayable",
      "type": "function"
    },
    {
      "inputs": [],
      "name": "name",
      "outputs": [
        {
          "internalType": "string",
          "name": "",
          "type": "string"
        }
      ],
      "stateMutability": "view",
      "type": "function"
    },
    {
      "inputs": [
        {
          "internalType": "address",
          "name": "",
          "type": "address"
        }
      ],
      "name": "nonces",
      "outputs": [
        {
          "internalType": "uint256",
          "name": "",
          "type": "uint256"
        }
      ],
      "stateMutability": "view",
      "type": "function"
    },
    {
      "inputs": [],
      "name": "owner",
      "outputs": [
        {
          "internalType": "address",
          "name": "",
          "type": "address"
        }
      ],
      "stateMutability": "view",
      "type": "function"
    },
    {
      "inputs": [],
      "name": "pendingOwner",
      "outputs": [
        {
          "internalType": "address",
          "name": "",
          "type": "address"
        }
      ],
      "stateMutability": "view",
      "type": "function"
    },
    {
      "inputs": [
        {
          "internalType": "address",
          "name": "owner_",
          "type": "address"
        },
        {
          "internalType": "address",
          "name": "spender",
          "type": "address"
        },
        {
          "internalType": "uint256",
          "name": "value",
          "type": "uint256"
        },
        {
          "internalType": "uint256",
          "name": "deadline",
          "type": "uint256"
        },
        {
          "internalType": "uint8",
          "name": "v",
          "type": "uint8"
        },
        {
          "internalType": "bytes32",
          "name": "r",
          "type": "bytes32"
        },
        {
          "internalType": "bytes32",
          "name": "s",
          "type": "bytes32"
        }
      ],
      "name": "permit",
      "outputs": [],
      "stateMutability": "nonpayable",
      "type": "function"
    },
    {
      "inputs": [
        {
          "internalType": "contract IERC20",
          "name": "token",
          "type": "address"
        },
        {
          "internalType": "address",
          "name": "from",
          "type": "address"
        },
        {
          "internalType": "address",
          "name": "to",
          "type": "address"
        },
        {
          "internalType": "uint256",
          "name": "amount",
          "type": "uint256"
        },
        {
          "internalType": "uint256",
          "name": "deadline",
          "type": "uint256"
        },
        {
          "internalType": "uint8",
          "name": "v",
          "type": "uint8"
        },
        {
          "internalType": "bytes32",
          "name": "r",
          "type": "bytes32"
        },
        {
          "internalType": "bytes32",
          "name": "s",
          "type": "bytes32"
        }
      ],
      "name": "permitToken",
      "outputs": [],
      "stateMutability": "nonpayable",
      "type": "function"
    },
    {
      "inputs": [
        {
          "internalType": "address",
          "name": "user",
          "type": "address"
        }
      ],
      "name": "poll",
      "outputs": [
        {
          "internalType": "address",
          "name": "canvas_",
          "type": "address"
        },
        {
          "internalType": "uint256",
          "name": "updates_",
          "type": "uint256"
        },
        {
          "internalType": "uint256",
          "name": "balance",
          "type": "uint256"
        },
        {
          "internalType": "uint256",
          "name": "supply",
          "type": "uint256"
        },
        {
          "internalType": "address",
          "name": "upline_",
          "type": "address"
        },
        {
          "components": [
            {
              "internalType": "uint128",
              "name": "earnings1",
              "type": "uint128"
            },
            {
              "internalType": "uint128",
              "name": "earnings2",
              "type": "uint128"
            },
            {
              "internalType": "uint128",
              "name": "earnings3",
              "type": "uint128"
            },
            {
              "internalType": "uint32",
              "name": "tier1",
              "type": "uint32"
            },
            {
              "internalType": "uint32",
              "name": "tier2",
              "type": "uint32"
            },
            {
              "internalType": "uint32",
              "name": "tier3",
              "type": "uint32"
            }
          ],
          "internalType": "struct MLM.DownlineStats",
          "name": "downline_",
          "type": "tuple"
        }
      ],
      "stateMutability": "view",
      "type": "function"
    },
    {
      "inputs": [
        {
          "internalType": "uint256[]",
          "name": "blockNumbers",
          "type": "uint256[]"
        },
        {
          "internalType": "uint32",
          "name": "linkNumber",
          "type": "uint32"
        },
        {
          "internalType": "bytes[]",
          "name": "pixels",
          "type": "bytes[]"
        },
        {
          "internalType": "address",
          "name": "referrer",
          "type": "address"
        }
      ],
      "name": "setBlocks",
      "outputs": [],
      "stateMutability": "payable",
      "type": "function"
    },
    {
      "inputs": [
        {
          "internalType": "uint256[]",
          "name": "blockNumbers",
          "type": "uint256[]"
        },
        {
          "internalType": "string",
          "name": "url",
          "type": "string"
        },
        {
          "internalType": "string",
          "name": "description",
          "type": "string"
        },
        {
          "internalType": "bytes[]",
          "name": "pixels",
          "type": "bytes[]"
        },
        {
          "internalType": "address",
          "name": "referrer",
          "type": "address"
        }
      ],
      "name": "setBlocks",
      "outputs": [
        {
          "internalType": "uint32",
          "name": "linkNumber",
          "type": "uint32"
        }
      ],
      "stateMutability": "payable",
      "type": "function"
    },
    {
      "inputs": [],
      "name": "symbol",
      "outputs": [
        {
          "internalType": "string",
          "name": "",
          "type": "string"
        }
      ],
      "stateMutability": "view",
      "type": "function"
    },
    {
      "inputs": [],
      "name": "totalSupply",
      "outputs": [
        {
          "internalType": "uint256",
          "name": "",
          "type": "uint256"
        }
      ],
      "stateMutability": "view",
      "type": "function"
    },
    {
      "inputs": [
        {
          "internalType": "address",
          "name": "to",
          "type": "address"
        },
        {
          "internalType": "uint256",
          "name": "amount",
          "type": "uint256"
        }
      ],
      "name": "transfer",
      "outputs": [
        {
          "internalType": "bool",
          "name": "",
          "type": "bool"
        }
      ],
      "stateMutability": "nonpayable",
      "type": "function"
    },
    {
      "inputs": [
        {
          "internalType": "address",
          "name": "from",
          "type": "address"
        },
        {
          "internalType": "address",
          "name": "to",
          "type": "address"
        },
        {
          "internalType": "uint256",
          "name": "amount",
          "type": "uint256"
        }
      ],
      "name": "transferFrom",
      "outputs": [
        {
          "internalType": "bool",
          "name": "",
          "type": "bool"
        }
      ],
      "stateMutability": "nonpayable",
      "type": "function"
    },
    {
      "inputs": [
        {
          "internalType": "address",
          "name": "newOwner",
          "type": "address"
        },
        {
          "internalType": "bool",
          "name": "direct",
          "type": "bool"
        },
        {
          "internalType": "bool",
          "name": "renounce",
          "type": "bool"
        }
      ],
      "name": "transferOwnership",
      "outputs": [],
      "stateMutability": "nonpayable",
      "type": "function"
    },
    {
      "inputs": [
        {
          "internalType": "uint256",
          "name": "",
          "type": "uint256"
        }
      ],
      "name": "updates",
      "outputs": [
        {
          "internalType": "uint256",
          "name": "",
          "type": "uint256"
        }
      ],
      "stateMutability": "view",
      "type": "function"
    },
    {
      "inputs": [],
      "name": "updatesCount",
      "outputs": [
        {
          "internalType": "uint256",
          "name": "",
          "type": "uint256"
        }
      ],
      "stateMutability": "view",
      "type": "function"
    },
    {
      "inputs": [
        {
          "internalType": "address",
          "name": "",
          "type": "address"
        }
      ],
      "name": "upline",
      "outputs": [
        {
          "internalType": "address",
          "name": "",
          "type": "address"
        }
      ],
      "stateMutability": "view",
      "type": "function"
    },
    {
      "inputs": [
        {
          "internalType": "contract IERC20",
          "name": "token",
          "type": "address"
        }
      ],
      "name": "withdraw",
      "outputs": [],
      "stateMutability": "nonpayable",
      "type": "function"
    },
    {
      "stateMutability": "payable",
      "type": "receive"
    }
  ],
  "transactionHash": "0xb6b60c5b054177ca04ba17a3cc15b20d897dfe74b90a80c7a0860a9db13c26da",
  "args": [],
  "solcInputHash": "26eea9c8c98b8e15d0139d2e2a152106",
  "bytecode": "0x60c06040523480156200001157600080fd5b504660a08190526200002381620000f9565b60805250600680546001600160a01b031916339081179091556040516000907f8be0079c531659141344cd1fd0a4f28419497f9722a3daafe3b4186f6b6457e0908290a36040805160608101825260008183018181528252825160208181019094528181528383015260098054600181018255915281518051929360029092027f6e1540171b6c0c960b71a7020d9f60077f6af931a8bbf590da0223dacf75c7af0192620000d592849201906200014f565b506020828101518051620000f092600185019201906200014f565b5050506200020a565b60007f47e79534a245952e8b16893a336b85a3d9ea9fa8c573f3d803afb92a7946921882306040516020016200013293929190620001eb565b604051602081830303815290604052805190602001209050919050565b828054600181600116156101000203166002900490600052602060002090601f016020900481019282601f106200019257805160ff1916838001178555620001c2565b82800160010185558215620001c2579182015b82811115620001c2578251825591602001919060010190620001a5565b50620001d0929150620001d4565b5090565b5b80821115620001d05760008155600101620001d5565b92835260208301919091526001600160a01b0316604082015260600190565b60805160a051614ea16200022e600039806120a65250806120df5250614ea16000f3fe608060405260043610620002475760003560e01c8063781cd99d1162000133578063a9059cbb11620000af578063d505accf1162000079578063d505accf14620006e2578063dd62ed3e1462000707578063e30c3978146200072c578063e7054e5b1462000744578063ee687c75146200076a576200024f565b8063a9059cbb146200064c578063b1a867d51462000671578063b4c2f72714620006a6578063d2423b5114620006cb576200024f565b80638da5cb5b11620000fd5780638da5cb5b14620005b457806395d89b4114620005cc5780639829a53214620005e45780639b8e9b5e14620005fb5780639ee6bd821462000613576200024f565b8063781cd99d146200051b5780637b46a39c14620005335780637c516e94146200056a5780637ecebe00146200058f576200024f565b80633644e51511620001c357806354328c0e116200018d57806354328c0e14620004445780635a4dd47d1462000478578063697f92f4146200049d5780636ac1c5a614620004c257806370a0823114620004f6576200024f565b80633644e51514620003d75780634adc8a6e14620003ef5780634e71e0c8146200040757806351cff8d9146200041f576200024f565b80630e3bd35211620002115780630e3bd352146200030657806318160ddd146200033a57806323b872dd1462000352578063313ce567146200037757806332985bf4146200039e576200024f565b806306fdde031462000254578063078dfbe7146200028457806308a32d8c14620002ab578063095ea7b314620002d2576200024f565b366200024f57005b600080fd5b3480156200026157600080fd5b506200026c62000782565b6040516200027b9190620033f6565b60405180910390f35b3480156200029157600080fd5b50620002a9620002a336600462002bc2565b620007a3565b005b348015620002b857600080fd5b50620002c36200089c565b6040516200027b91906200337c565b348015620002df57600080fd5b50620002f7620002f136600462002c13565b620008a4565b6040516200027b919062003371565b3480156200031357600080fd5b506200032b6200032536600462002aac565b62000911565b6040516200027b91906200309b565b3480156200034757600080fd5b50620002c36200092c565b3480156200035f57600080fd5b50620002f76200037136600462002b08565b62000932565b3480156200038457600080fd5b506200038f62000aba565b6040516200027b9190620038c0565b348015620003ab57600080fd5b50620003c3620003bd36600462002aac565b62000abf565b6040516200027b9695949392919062003191565b348015620003e457600080fd5b50620002c362000b83565b348015620003fc57600080fd5b50620002a962000b94565b3480156200041457600080fd5b50620002a962000c81565b3480156200042c57600080fd5b50620002a96200043e36600462002aac565b62000d12565b3480156200045157600080fd5b50620004696200046336600462002c91565b62000e6f565b6040516200027b919062003249565b3480156200048557600080fd5b50620002c36200049736600462002fa8565b6200127d565b348015620004aa57600080fd5b50620002c3620004bc36600462002c91565b620012cd565b348015620004cf57600080fd5b50620004e7620004e136600462002fda565b6200130f565b6040516200027b91906200332b565b3480156200050357600080fd5b50620002c36200051536600462002aac565b620013bc565b3480156200052857600080fd5b50620002c3620013ce565b3480156200054057600080fd5b50620005586200055236600462002fa8565b620013d6565b6040516200027b949392919062003137565b3480156200057757600080fd5b50620002a96200058936600462002e7b565b620014b2565b3480156200059c57600080fd5b50620002c3620005ae36600462002aac565b6200152a565b348015620005c157600080fd5b506200032b6200153c565b348015620005d957600080fd5b506200026c6200154b565b620002a9620005f536600462002db6565b6200156c565b3480156200060857600080fd5b506200032b620019c3565b3480156200062057600080fd5b50620006386200063236600462002aac565b620019d2565b6040516200027b969594939291906200386e565b3480156200065957600080fd5b50620002f76200066b36600462002c13565b62001a24565b3480156200067e57600080fd5b50620006966200069036600462002fa8565b62001b21565b6040516200027b9291906200340b565b348015620006b357600080fd5b50620002c3620006c536600462002fa8565b62001c75565b620002a9620006dc36600462002c41565b62001c95565b348015620006ef57600080fd5b50620002a96200070136600462002b4d565b62001d67565b3480156200071457600080fd5b50620002c36200072636600462002acb565b62001f1a565b3480156200073957600080fd5b506200032b62001f37565b6200075b6200075536600462002cd5565b62001f46565b6040516200027b9190620038af565b3480156200077757600080fd5b50620002c36200209a565b60405180604001604052806005815260200164141a5e195b60da1b81525081565b6006546001600160a01b03163314620007d95760405162461bcd60e51b8152600401620007d090620036a3565b60405180910390fd5b81156200087b576001600160a01b038316151580620007f55750805b620008145760405162461bcd60e51b8152600401620007d090620034d3565b6006546040516001600160a01b038086169216907f8be0079c531659141344cd1fd0a4f28419497f9722a3daafe3b4186f6b6457e090600090a3600680546001600160a01b0385166001600160a01b03199182161790915560078054909116905562000897565b600780546001600160a01b0319166001600160a01b0385161790555b505050565b636101508481565b3360008181526001602090815260408083206001600160a01b038716808552925280832085905551919290917f8c5be1e5ebec7d5bd14f71427d1e84f3dd0314c0f7b2291e5b200ac8c7c3b92590620008ff9086906200337c565b60405180910390a35060015b92915050565b6004602052600090815260409020546001600160a01b031681565b60035481565b6000811562000a63576001600160a01b03841660009081526020819052604090205482811015620009775760405162461bcd60e51b8152600401620007d090620037d0565b836001600160a01b0316856001600160a01b03161462000a61576001600160a01b0385166000908152600160209081526040808320338452909152902054600019811462000a0b5783811015620009e25760405162461bcd60e51b8152600401620007d09062003644565b6001600160a01b0386166000908152600160209081526040808320338452909152902084820390555b6001600160a01b03851662000a345760405162461bcd60e51b8152600401620007d090620034a3565b506001600160a01b0380861660009081526020819052604080822086850390559186168152208054840190555b505b826001600160a01b0316846001600160a01b03167fddf252ad1be2c89b69c2b068fc378daa952ba7f163c4a11628f55a4df523b3ef8460405162000aa891906200337c565b60405180910390a35060019392505050565b601281565b600080600080600062000ad1620028c2565b505060085461753a546001600160a01b039687166000908152602081815260408083205460035460048452828520546005855294839020835160c08101855281546001600160801b038082168352600160801b9182900481169783019790975260019092015495861694810194909452840463ffffffff9081166060850152600160a01b850481166080850152600160c01b90940490931660a0830152948a169a939994985090965092169350909150565b600062000b8f620020a1565b905090565b636101508442101562000bbb5760405162461bcd60e51b8152600401620007d09062003568565b6006546040516000916001600160a01b031690479062000bdb9062003098565b60006040518083038185875af1925050503d806000811462000c1a576040519150601f19603f3d011682016040523d82523d6000602084013e62000c1f565b606091505b5050809150503060405162000c3490620028f7565b62000c4091906200309b565b604051809103906000f08015801562000c5d573d6000803e3d6000fd5b50600880546001600160a01b0319166001600160a01b039290921691909117905550565b6007546001600160a01b031633811462000caf5760405162461bcd60e51b8152600401620007d090620036d8565b6006546040516001600160a01b038084169216907f8be0079c531659141344cd1fd0a4f28419497f9722a3daafe3b4186f6b6457e090600090a3600680546001600160a01b039092166001600160a01b0319928316179055600780549091169055565b6006546001600160a01b0316331462000d3f5760405162461bcd60e51b8152600401620007d090620036a3565b6001600160a01b0381161562000df6576006546040516370a0823160e01b815262000df0916001600160a01b0390811691908416906370a082319062000d8a9030906004016200309b565b60206040518083038186803b15801562000da357600080fd5b505afa15801562000db8573d6000803e3d6000fd5b505050506040513d601f19601f8201168201806040525081019062000dde919062002fc1565b6001600160a01b038416919062002105565b62000e6c565b636101508442101562000e6c576006546040516000916001600160a01b031690479062000e239062003098565b60006040518083038185875af1925050503d806000811462000e62576040519150601f19603f3d011682016040523d82523d6000602084013e62000e67565b606091505b505050505b50565b60608167ffffffffffffffff8111801562000e8957600080fd5b5060405190808252806020026020018201604052801562000ec757816020015b62000eb362002905565b81526020019060019003908162000ea95790505b50905060005b82811015620012765762000ee062002939565b600a85858481811062000eef57fe5b90506020020135612710811062000f0257fe5b604080516080810182526003929092029290920180546001600160a01b031682526001808201546001600160801b038116602080860191909152600160801b90910463ffffffff16848601526002808401805487516101009582161595909502600019011691909104601f8101839004830284018301909652858352939492936060860193909183018282801562000fde5780601f1062000fb25761010080835404028352916020019162000fde565b820191906000526020600020905b81548152906001019060200180831162000fc057829003601f168201915b505050505081525050905062000ff36200295f565b6009826040015163ffffffff16815481106200100b57fe5b60009182526020918290206040805160029384029092018054600181161561010002600019011693909304601f81018590049094028201606090810182529082018481529193849291849190840182828015620010ac5780601f106200108057610100808354040283529160200191620010ac565b820191906000526020600020905b8154815290600101906020018083116200108e57829003601f168201915b50505050508152602001600182018054600181600116156101000203166002900480601f016020809104026020016040519081016040528092919081815260200182805460018160011615610100020316600290048015620011525780601f10620011265761010080835404028352916020019162001152565b820191906000526020600020905b8154815290600101906020018083116200113457829003601f168201915b50505050508152505090506200117b8686858181106200116e57fe5b9050602002013562002201565b8484815181106200118857fe5b602090810291909101015163ffffffff909116905281518451859085908110620011ae57fe5b6020026020010151602001906001600160a01b031690816001600160a01b0316815250508160200151848481518110620011e457fe5b6020026020010151604001906001600160801b031690816001600160801b03168152505080600001518484815181106200121a57fe5b60200260200101516060018190525080602001518484815181106200123b57fe5b60200260200101516080018190525081606001518484815181106200125c57fe5b602090810291909101015160a00152505060010162000ecd565b5092915050565b600080600a8361271081106200128f57fe5b60030201600101546001600160801b031690508015620012bc57620012b68160026200222e565b620012c6565b678ac7230489e800005b9392505050565b6000805b82811015620012765762001304620012fc858584818110620012ef57fe5b905060200201356200127d565b83906200226a565b9150600101620012d1565b61753a5460609083900382811115620013255750815b8067ffffffffffffffff811180156200133d57600080fd5b5060405190808252806020026020018201604052801562001368578160200160208202803683370190505b50915060005b81811015620013b45761753a818601815481106200138857fe5b9060005260206000200154838281518110620013a057fe5b60209081029190910101526001016200136e565b505092915050565b60006020819052908152604090205481565b6360eedb8481565b600a816127108110620013e557fe5b6003020180546001808301546002808501805460408051602061010097841615979097026000190190921693909304601f81018690048602820186019093528281526001600160a01b0390951696506001600160801b03831695600160801b90930463ffffffff16949293909190830182828015620014a85780601f106200147c57610100808354040283529160200191620014a8565b820191906000526020600020905b8154815290600101906020018083116200148a57829003601f168201915b5050505050905084565b60405163d505accf60e01b81526001600160a01b0389169063d505accf90620014ec908a908a908a908a908a908a908a90600401620030c9565b600060405180830381600087803b1580156200150757600080fd5b505af11580156200151c573d6000803e3d6000fd5b505050505050505050505050565b60026020526000908152604090205481565b6006546001600160a01b031681565b60405180604001604052806005815260200164141256115360da1b81525081565b6360eedb844210158015620015845750636101508442105b620015a35760405162461bcd60e51b8152600401620007d09062003539565b6000620015b18787620012cd565b905080341015620015d65760405162461bcd60e51b8152600401620007d0906200359f565b6000620015e4823462002290565b9050801562001672576000336001600160a01b031682604051620016089062003098565b60006040518083038185875af1925050503d806000811462001647576040519150601f19603f3d011682016040523d82523d6000602084013e6200164c565b606091505b5050905080620016705760405162461bcd60e51b8152600401620007d0906200370d565b505b6200167e3384620022b6565b60005b87811015620018b85760008989838181106200169957fe5b9050602002013590506000600a826127108110620016b357fe5b60030201546001600160a01b0316600a836127108110620016d057fe5b6003020160010154604051614e20916001600160801b031690620016f49062003098565b600060405180830381858888f193505050503d806000811462001734576040519150601f19603f3d011682016040523d82523d6000602084013e62001739565b606091505b5050809150506200174962002939565b338152620017616200175b846200127d565b6200253d565b6001600160801b0316602082015263ffffffff8a1660408201528888858181106200178857fe5b90506020028101906200179c9190620038ce565b8080601f016020809104026020016040519081016040528093929190818152602001838380828437600092019190915250505050606082015280600a846127108110620017e557fe5b82516003919091029190910180546001600160a01b039092166001600160a01b0319909216919091178155602080830151600183018054604086015163ffffffff16600160801b0263ffffffff60801b196001600160801b039094166001600160801b031990921691909117929092169190911790556060830151805162001874926002850192019062002979565b505061753a8054600181810183556000929092527fc3e8eaaf1b259cc7815275286d25a9e8a8a3ac0678fe5f874d6f967affd9074401949094555050500162001681565b5086620018da33620018d48368056bc75e2d631000006200222e565b62002569565b6000806000620018ea33620025b7565b919450925090506001600160a01b038316156200191b576200191b83620018d4866801158e460913d000006200222e565b6001600160a01b0382161562001944576200194482620018d486678ac7230489e800006200222e565b6001600160a01b038116156200196d576200196d81620018d486674563918244f400006200222e565b6200151c8383836200198d6200175b896801158e460913d000006200222e565b620019a56200175b8a678ac7230489e800006200222e565b620019bd6200175b8b674563918244f400006200222e565b62002625565b6008546001600160a01b031681565b600560205260009081526040902080546001909101546001600160801b0380831692600160801b908190048216929182169163ffffffff918104821691600160a01b8204811691600160c01b90041686565b60008115158062001a3d5750336001600160a01b038416145b1562001adc57336000908152602081905260409020548281101562001a765760405162461bcd60e51b8152600401620007d090620037d0565b336001600160a01b0385161462001ada576001600160a01b03841662001ab05760405162461bcd60e51b8152600401620007d090620034a3565b3360009081526020819052604080822085840390556001600160a01b038616825290208054840190555b505b826001600160a01b0316336001600160a01b03167fddf252ad1be2c89b69c2b068fc378daa952ba7f163c4a11628f55a4df523b3ef84604051620008ff91906200337c565b6009818154811062001b2f57fe5b60009182526020918290206002918202018054604080516001831615610100026000190190921693909304601f81018590048502820185019093528281529093509183919083018282801562001bc95780601f1062001b9d5761010080835404028352916020019162001bc9565b820191906000526020600020905b81548152906001019060200180831162001bab57829003601f168201915b505050505090806001018054600181600116156101000203166002900480601f01602080910402602001604051908101604052809291908181526020018280546001816001161561010002031660029004801562001c6b5780601f1062001c3f5761010080835404028352916020019162001c6b565b820191906000526020600020905b81548152906001019060200180831162001c4d57829003601f168201915b5050505050905082565b61753a818154811062001c8457fe5b600091825260209091200154905081565b60005b8281101562001d6157600060603086868581811062001cb357fe5b905060200281019062001cc79190620038ce565b60405162001cd792919062003041565b600060405180830381855af49150503d806000811462001d14576040519150601f19603f3d011682016040523d82523d6000602084013e62001d19565b606091505b50915091508115801562001d2a5750835b1562001d565762001d3b81620027c4565b60405162461bcd60e51b8152600401620007d09190620033f6565b505060010162001c98565b50505050565b6001600160a01b03871662001d905760405162461bcd60e51b8152600401620007d09062003762565b83421062001db25760405162461bcd60e51b8152600401620007d0906200367b565b6001600160a01b038716600081815260026020908152604091829020805460018181019092559251909262001e349262001e18927f6e71edae12b1b97f4d1f60370fef10105fa2faae0126114a169c64845d6126c9928e928e928e92918e910162003385565b6040516020818303038152906040528051906020012062002830565b8585856040516000815260200160405260405162001e569493929190620033d8565b6020604051602081039080840390855afa15801562001e79573d6000803e3d6000fd5b505050602060405103516001600160a01b03161462001eac5760405162461bcd60e51b8152600401620007d09062003837565b6001600160a01b038088166000818152600160209081526040808320948b168084529490915290819020889055517f8c5be1e5ebec7d5bd14f71427d1e84f3dd0314c0f7b2291e5b200ac8c7c3b9259062001f099089906200337c565b60405180910390a350505050505050565b600160209081526000928352604080842090915290825290205481565b6007546001600160a01b031681565b60006360eedb84421015801562001f605750636101508442105b62001f7f5760405162461bcd60e51b8152600401620007d09062003539565b62001f896200295f565b88888080601f016020809104026020016040519081016040528093929190818152602001838380828437600092019190915250505090825250604080516020601f89018190048102820181019092528781529088908890819084018382808284376000920191909152505050506020820152600954620020099062002201565b6009805460018101825560009190915282518051929450839260029092027f6e1540171b6c0c960b71a7020d9f60077f6af931a8bbf590da0223dacf75c7af01916200205e9183916020919091019062002979565b50602082810151805162002079926001850192019062002979565b5050506200208c8b8b848888886200156c565b509998505050505050505050565b61753a5490565b6000467f00000000000000000000000000000000000000000000000000000000000000008114620020dd57620020d78162002889565b620020ff565b7f00000000000000000000000000000000000000000000000000000000000000005b91505090565b60006060846001600160a01b031663a9059cbb60e01b85856040516024016200213092919062003178565b60408051601f198184030181529181526020820180516001600160e01b03166001600160e01b031990941693909317909252905162002170919062003051565b6000604051808303816000865af19150503d8060008114620021af576040519150601f19603f3d011682016040523d82523d6000602084013e620021b4565b606091505b5091509150818015620021e2575080511580620021e2575080806020019051810190620021e2919062002e5c565b62000e675760405162461bcd60e51b8152600401620007d0906200346c565b600063ffffffff8211156200222a5760405162461bcd60e51b8152600401620007d09062003799565b5090565b60008115806200224b575050808202828282816200224857fe5b04145b6200090b5760405162461bcd60e51b8152600401620007d09062003800565b818101818110156200090b5760405162461bcd60e51b8152600401620007d090620035d6565b808203828111156200090b5760405162461bcd60e51b8152600401620007d0906200343d565b6001600160a01b0381161580620022e657506001600160a01b038281166000908152600460205260409020541615155b15620022f25762002539565b806001600160a01b0316826001600160a01b03161415620023275760405162461bcd60e51b8152600401620007d0906200360d565b6001600160a01b03828116600090815260046020526040812080546001600160a01b0319169284169290921790915580806200236385620025b7565b919450925090506001600160a01b038316156200241e576001600160a01b038084166000818152600560205260408082206001908101805463ffffffff600160801b808304821685018216810263ffffffff60801b1990931692909217808455978d1686529385209092018054600160a01b8089048616949091048516939093018416830263ffffffff60a01b19978816178083559054959094528184048316600160c01b9095048316949094019091160292169190911790555b6001600160a01b03821615620024a2576001600160a01b038083166000818152600560205260408082206001908101805463ffffffff600160a01b808304821685018216810263ffffffff60a01b1993841617808555988e16875294862090930154959094528286048216600160c01b909504821694909401160292169190911790555b6001600160a01b03811615620024fa576001600160a01b03811660009081526005602052604090206001908101805463ffffffff600160c01b80830482169094011690920263ffffffff60c01b199092169190911790555b7ff4c78ee7aea6f59d773994adfe29bbdd72b3f898d9d841ab904a3a647ef3c1a985856040516200252d929190620030af565b60405180910390a15050505b5050565b60006001600160801b038211156200222a5760405162461bcd60e51b8152600401620007d09062003502565b60035480820190811015620025925760405162461bcd60e51b8152600401620007d0906200373b565b6003556001600160a01b03909116600090815260208190526040902080549091019055565b6001600160a01b03808216600090815260046020526040812054909116908082156200261e576001600160a01b0380841660009081526004602052604090205416915081156200261e57506001600160a01b03808216600090815260046020526040902054165b9193909250565b6001600160a01b03861615620026ac576001600160a01b0386166000908152600560205260409081902080546001600160801b038082168701166001600160801b0319909116179055517fab447945db99bd5b39787e606f4042798f11b5e38a55486bf06b7368440867e290620026a390889086906001906200310a565b60405180910390a15b6001600160a01b0385161562002732576001600160a01b0385166000908152600560205260409081902080546001600160801b03600160801b808304821687018216029116179055517fab447945db99bd5b39787e606f4042798f11b5e38a55486bf06b7368440867e2906200272990879086906002906200310a565b60405180910390a15b6001600160a01b03841615620027bc576001600160a01b0384166000908152600560205260409081902060010180546001600160801b038082168501166001600160801b0319909116179055517fab447945db99bd5b39787e606f4042798f11b5e38a55486bf06b7368440867e290620027b390869086906003906200310a565b60405180910390a15b505050505050565b60606044825110156200280c575060408051808201909152601d81527f5472616e73616374696f6e2072657665727465642073696c656e746c7900000060208201526200282b565b6004820191508180602001905181019062002828919062002f05565b90505b919050565b600060405180604001604052806002815260200161190160f01b81525062002857620020a1565b836040516020016200286c939291906200306f565b604051602081830303815290604052805190602001209050919050565b60007f47e79534a245952e8b16893a336b85a3d9ea9fa8c573f3d803afb92a7946921882306040516020016200286c93929190620033b9565b6040805160c081018252600080825260208201819052918101829052606081018290526080810182905260a081019190915290565b611501806200396b83390190565b6040805160c0810182526000808252602082018190529181019190915260608082018190526080820181905260a082015290565b604080516080810182526000808252602082018190529181019190915260608082015290565b604051806040016040528060608152602001606081525090565b828054600181600116156101000203166002900490600052602060002090601f016020900481019282601f10620029bc57805160ff1916838001178555620029ec565b82800160010185558215620029ec579182015b82811115620029ec578251825591602001919060010190620029cf565b506200222a9291505b808211156200222a5760008155600101620029f5565b60008083601f84011262002a1d578182fd5b50813567ffffffffffffffff81111562002a35578182fd5b602083019150836020808302850101111562002a5057600080fd5b9250929050565b60008083601f84011262002a69578182fd5b50813567ffffffffffffffff81111562002a81578182fd5b60208301915083602082850101111562002a5057600080fd5b803560ff811681146200090b57600080fd5b60006020828403121562002abe578081fd5b8135620012c68162003945565b6000806040838503121562002ade578081fd5b823562002aeb8162003945565b9150602083013562002afd8162003945565b809150509250929050565b60008060006060848603121562002b1d578081fd5b833562002b2a8162003945565b9250602084013562002b3c8162003945565b929592945050506040919091013590565b600080600080600080600060e0888a03121562002b68578283fd5b873562002b758162003945565b9650602088013562002b878162003945565b9550604088013594506060880135935062002ba68960808a0162002a9a565b925060a0880135915060c0880135905092959891949750929550565b60008060006060848603121562002bd7578283fd5b833562002be48162003945565b9250602084013562002bf6816200395b565b9150604084013562002c08816200395b565b809150509250925092565b6000806040838503121562002c26578182fd5b823562002c338162003945565b946020939093013593505050565b60008060006040848603121562002c56578283fd5b833567ffffffffffffffff81111562002c6d578384fd5b62002c7b8682870162002a0b565b909450925050602084013562002c08816200395b565b6000806020838503121562002ca4578182fd5b823567ffffffffffffffff81111562002cbb578283fd5b62002cc98582860162002a0b565b90969095509350505050565b600080600080600080600080600060a08a8c03121562002cf3578182fd5b893567ffffffffffffffff8082111562002d0b578384fd5b62002d198d838e0162002a0b565b909b50995060208c013591508082111562002d32578384fd5b62002d408d838e0162002a57565b909950975060408c013591508082111562002d59578384fd5b62002d678d838e0162002a57565b909750955060608c013591508082111562002d80578384fd5b5062002d8f8c828d0162002a0b565b90945092505060808a013562002da58162003945565b809150509295985092959850929598565b6000806000806000806080878903121562002dcf578384fd5b863567ffffffffffffffff8082111562002de7578586fd5b62002df58a838b0162002a0b565b90985096506020890135915063ffffffff8216821462002e13578586fd5b9094506040880135908082111562002e29578384fd5b5062002e3889828a0162002a0b565b909450925050606087013562002e4e8162003945565b809150509295509295509295565b60006020828403121562002e6e578081fd5b8151620012c6816200395b565b600080600080600080600080610100898b03121562002e98578182fd5b883562002ea58162003945565b9750602089013562002eb78162003945565b9650604089013562002ec98162003945565b9550606089013594506080890135935062002ee88a60a08b0162002a9a565b925060c0890135915060e089013590509295985092959890939650565b60006020828403121562002f17578081fd5b815167ffffffffffffffff8082111562002f2f578283fd5b818401915084601f83011262002f43578283fd5b81518181111562002f52578384fd5b604051601f8201601f19168101602001838111828210171562002f73578586fd5b60405281815283820160200187101562002f8b578485fd5b62002f9e82602083016020870162003916565b9695505050505050565b60006020828403121562002fba578081fd5b5035919050565b60006020828403121562002fd3578081fd5b5051919050565b6000806040838503121562002fed578182fd5b50508035926020909101359150565b600081518084526200301681602086016020860162003916565b601f01601f19169290920160200192915050565b6001600160801b03169052565b63ffffffff169052565b6000828483379101908152919050565b600082516200306581846020870162003916565b9190910192915050565b600084516200308381846020890162003916565b91909101928352506020820152604001919050565b90565b6001600160a01b0391909116815260200190565b6001600160a01b0392831681529116602082015260400190565b6001600160a01b0397881681529590961660208601526040850193909352606084019190915260ff16608083015260a082015260c081019190915260e00190565b6001600160a01b039390931683526001600160801b0391909116602083015260ff16604082015260600190565b6001600160a01b03851681526001600160801b038416602082015263ffffffff8316604082015260806060820181905260009062002f9e9083018462002ffc565b6001600160a01b03929092168252602082015260400190565b6001600160a01b038781168252602082018790526040820186905260608201859052831660808201528151610160820190620031d29060a08401906200302a565b6020830151620031e660c08401826200302a565b506040830151620031fb60e08401826200302a565b5060608301516200321161010084018262003037565b5060808301516200322761012084018262003037565b5060a08301516200323d61014084018262003037565b50979650505050505050565b60208082528251828201819052600091906040908185019080840286018301878501865b838110156200331d57888303603f190185528151805163ffffffff168452878101516001600160a01b031688850152868101516001600160801b03168785015260608082015160c08287018190529190620032cb8388018262002ffc565b9250505060808083015186830382880152620032e8838262002ffc565b9250505060a0808301519250858203818701525062003308818362002ffc565b9689019694505050908601906001016200326d565b509098975050505050505050565b6020808252825182820181905260009190848201906040850190845b81811015620033655783518352928401929184019160010162003347565b50909695505050505050565b901515815260200190565b90815260200190565b9586526001600160a01b0394851660208701529290931660408501526060840152608083019190915260a082015260c00190565b92835260208301919091526001600160a01b0316604082015260600190565b93845260ff9290921660208401526040830152606082015260800190565b600060208252620012c6602083018462002ffc565b60006040825262003420604083018562002ffc565b828103602084015262003434818562002ffc565b95945050505050565b602080825260159082015274426f72696e674d6174683a20556e646572666c6f7760581b604082015260600190565b6020808252601c908201527f426f72696e6745524332303a205472616e73666572206661696c656400000000604082015260600190565b60208082526016908201527545524332303a206e6f207a65726f206164647265737360501b604082015260600190565b6020808252601590820152744f776e61626c653a207a65726f206164647265737360581b604082015260600190565b6020808252601c908201527f426f72696e674d6174683a2075696e74313238204f766572666c6f7700000000604082015260600190565b6020808252601590820152744e6f7420696e206372656174696f6e20706861736560581b604082015260600190565b6020808252601b908201527f4372656174696f6e205068617365206e6f742066696e69736865640000000000604082015260600190565b60208082526017908201527f506978656c3a206e6f7420656e6f7567682066756e6473000000000000000000604082015260600190565b60208082526018908201527f426f72696e674d6174683a20416464204f766572666c6f770000000000000000604082015260600190565b60208082526019908201527f4d4c4d3a2043616e277420726566657220796f757273656c6600000000000000604082015260600190565b60208082526018908201527f45524332303a20616c6c6f77616e636520746f6f206c6f770000000000000000604082015260600190565b6020808252600e908201526d115490cc8c0e88115e1c1a5c995960921b604082015260600190565b6020808252818101527f4f776e61626c653a2063616c6c6572206973206e6f7420746865206f776e6572604082015260600190565b6020808252818101527f4f776e61626c653a2063616c6c657220213d2070656e64696e67206f776e6572604082015260600190565b602080825260149082015273141a5e195b0e881c99599d5b990819985a5b195960621b604082015260600190565b6020808252600d908201526c4d696e74206f766572666c6f7760981b604082015260600190565b60208082526018908201527f45524332303a204f776e65722063616e6e6f7420626520300000000000000000604082015260600190565b6020808252601b908201527f426f72696e674d6174683a2075696e743332204f766572666c6f770000000000604082015260600190565b60208082526016908201527545524332303a2062616c616e636520746f6f206c6f7760501b604082015260600190565b60208082526018908201527f426f72696e674d6174683a204d756c204f766572666c6f770000000000000000604082015260600190565b60208082526018908201527f45524332303a20496e76616c6964205369676e61747572650000000000000000604082015260600190565b6001600160801b039687168152948616602086015292909416604084015263ffffffff9081166060840152928316608083015290911660a082015260c00190565b63ffffffff91909116815260200190565b60ff91909116815260200190565b6000808335601e19843603018112620038e5578283fd5b83018035915067ffffffffffffffff82111562003900578283fd5b60200191503681900382131562002a5057600080fd5b60005b838110156200393357818101518382015260200162003919565b8381111562001d615750506000910152565b6001600160a01b038116811462000e6c57600080fd5b801515811462000e6c57600080fdfe60a060405234801561001057600080fd5b506040516200150138038062001501833981016040819052610031916100f1565b806001600160a01b03166080816001600160a01b031660601b81525050600a816001600160a01b03166318160ddd6040518163ffffffff1660e01b815260040160206040518083038186803b15801561008957600080fd5b505afa15801561009d573d6000803e3d6000fd5b505050506040513d601f19601f820116820180604052508101906100c1919061011f565b816100c857fe5b04600255600080546001600160a01b0319166001600160a01b0392909216919091179055610137565b600060208284031215610102578081fd5b81516001600160a01b0381168114610118578182fd5b9392505050565b600060208284031215610130578081fd5b5051919050565b60805160601c6113a26200015f600039806106a452806107e152806108a352506113a26000f3fe6080604052600436106101405760003560e01c80636352211e116100b6578063a11752791161006f578063a117527914610325578063a22cb46514610349578063a6f2ae3a14610369578063b88d4fde14610371578063c87b56dd14610384578063e985e9c5146103a457610140565b80636352211e1461028657806370a08231146102a65780638cd295c2146102c6578063937f6e77146102db57806395d89b41146102fb578063a035b1fe1461031057610140565b806319e1fca41161010857806319e1fca41461020157806323b872dd146102165780632637588e14610229578063370158ea146102495780633bc585321461025e57806342842e0e1461027357610140565b806301ffc9a71461014557806306fdde031461017b578063081812fc1461019d578063095ea7b3146101ca57806318160ddd146101df575b600080fd5b34801561015157600080fd5b50610165610160366004610f94565b6103c4565b604051610172919061110b565b60405180910390f35b34801561018757600080fd5b506101906103fb565b6040516101729190611116565b3480156101a957600080fd5b506101bd6101b8366004611007565b61042b565b604051610172919061106d565b6101dd6101d8366004610f6a565b610465565b005b3480156101eb57600080fd5b506101f46104fd565b6040516101729190611335565b34801561020d57600080fd5b506101bd610502565b6101dd610224366004610e87565b610511565b34801561023557600080fd5b50610165610244366004610e53565b610521565b34801561025557600080fd5b50610190610541565b34801561026a57600080fd5b506101bd6105cf565b6101dd610281366004610e87565b6105de565b34801561029257600080fd5b506101bd6102a1366004611007565b6105f9565b3480156102b257600080fd5b506101f46102c1366004610e31565b610652565b3480156102d257600080fd5b506101bd6106a2565b3480156102e757600080fd5b506101dd6102f6366004610fcc565b6106c6565b34801561030757600080fd5b50610190610707565b34801561031c57600080fd5b506101f4610729565b34801561033157600080fd5b5061033a61072f565b604051610172939291906110e7565b34801561035557600080fd5b506101dd610364366004610f2f565b61074b565b6101dd6107ba565b6101dd61037f366004610ec7565b610a19565b34801561039057600080fd5b5061019061039f366004611007565b610ae5565b3480156103b057600080fd5b506101656103bf366004610e53565b610b3e565b60006001600160e01b031982166301ffc9a760e01b14806103f557506380ac58cd60e01b6001600160e01b03198316145b92915050565b604051806040016040528060148152602001735468652043616e766173206f6620506978656c7360601b81525081565b600081156104545760405162461bcd60e51b815260040161044b90611261565b60405180910390fd5b50506001546001600160a01b031690565b80156104835760405162461bcd60e51b815260040161044b90611261565b6000546001600160a01b031633146104ad5760405162461bcd60e51b815260040161044b906111b2565b600180546001600160a01b0319166001600160a01b03841690811790915560405182919033907f8c5be1e5ebec7d5bd14f71427d1e84f3dd0314c0f7b2291e5b200ac8c7c3b92590600090a45050565b600190565b6001546001600160a01b031681565b61051c838383610b6c565b505050565b600460209081526000928352604080842090915290825290205460ff1681565b6003805460408051602060026001851615610100026000190190941693909304601f810184900484028201840190925281815292918301828280156105c75780601f1061059c576101008083540402835291602001916105c7565b820191906000526020600020905b8154815290600101906020018083116105aa57829003601f168201915b505050505081565b6000546001600160a01b031681565b61051c83838360405180602001604052806000815250610a19565b600081156106195760405162461bcd60e51b815260040161044b90611261565b6000546001600160a01b03166106415760405162461bcd60e51b815260040161044b906112b4565b50506000546001600160a01b031690565b60006001600160a01b03821661067a5760405162461bcd60e51b815260040161044b9061128b565b6000546001600160a01b03838116911614610696576000610699565b60015b60ff1692915050565b7f000000000000000000000000000000000000000000000000000000000000000081565b6000546001600160a01b031633146106f05760405162461bcd60e51b815260040161044b90611158565b8051610703906003906020840190610d09565b5050565b6040518060400160405280600681526020016543414e56415360d01b81525081565b60025481565b6000546001546002546001600160a01b03928316939290911691565b3360008181526004602090815260408083206001600160a01b038716808552925291829020805460ff191685151517905590519091907f17307eab39ab6107e8899845ad3d59bd9653f200f220920489ca2b5937696c31906107ae90859061110b565b60405180910390a35050565b60025434146107db5760405162461bcd60e51b815260040161044b9061130d565b600080547f00000000000000000000000000000000000000000000000000000000000000006001600160a01b039081169116146108305760025460969061082390606e610ca9565b8161082a57fe5b04610833565b60005b6000805460405192935090916001600160a01b0390911690614e2090849061085a9061106a565b600060405180830381858888f193505050503d8060008114610898576040519150601f19603f3d011682016040523d82523d6000602084013e61089d565b606091505b505090507f00000000000000000000000000000000000000000000000000000000000000006001600160a01b03166108e083600254610ce090919063ffffffff16565b614e20906040516108f09061106a565b600060405180830381858888f193505050503d806000811461092e576040519150601f19603f3d011682016040523d82523d6000602084013e610933565b606091505b505080915050806109565760405162461bcd60e51b815260040161044b906111d6565b6000805460405133916001600160a01b0316907fddf252ad1be2c89b69c2b068fc378daa952ba7f163c4a11628f55a4df523b3ef908490a46000546002546040517f89f5adc174562e07c9c9b1cae7109bbecb21cf9d1b2847e550042b8653c54a0e926109d3926001600160a01b039091169133919087906110be565b60405180910390a16002546064906109ec906096610ca9565b816109f357fe5b046002555050600080546001600160a01b03199081163317909155600180549091169055565b610a24848484610b6c565b610a2d83610d03565b15610adf57604051630a85bd0160e11b808252906001600160a01b0385169063150b7a0290610a66903390899088908890600401611081565b602060405180830381600087803b158015610a8057600080fd5b505af1158015610a94573d6000803e3d6000fd5b505050506040513d601f19601f82011682018060405250810190610ab89190610fb0565b6001600160e01b03191614610adf5760405162461bcd60e51b815260040161044b9061120d565b50505050565b60608115610b055760405162461bcd60e51b815260040161044b90611261565b505060408051808201909152601d81527f68747470733a2f2f706978656c2e696e632f63616e7661732e6a736f6e000000602082015290565b6001600160a01b03918216600090815260046020908152604080832093909416825291909152205460ff1690565b8015610b8a5760405162461bcd60e51b815260040161044b90611261565b6000546001600160a01b03848116911614610bb75760405162461bcd60e51b815260040161044b90611239565b6001600160a01b038316331480610bdb57506001546001600160a01b038481169116145b80610c0d5750600080546001600160a01b039081168252600460209081526040808420928716845291905290205460ff165b610c295760405162461bcd60e51b815260040161044b90611184565b6001600160a01b038216610c4f5760405162461bcd60e51b815260040161044b9061128b565b600080546001600160a01b038085166001600160a01b031992831681178455600180549093169092556040518493918716917fddf252ad1be2c89b69c2b068fc378daa952ba7f163c4a11628f55a4df523b3ef91a4505050565b6000811580610cc457505080820282828281610cc157fe5b04145b6103f55760405162461bcd60e51b815260040161044b906112d6565b808203828111156103f55760405162461bcd60e51b815260040161044b90611129565b3b151590565b828054600181600116156101000203166002900490600052602060002090601f016020900481019282601f10610d4a57805160ff1916838001178555610d77565b82800160010185558215610d77579182015b82811115610d77578251825591602001919060010190610d5c565b50610d83929150610d87565b5090565b5b80821115610d835760008155600101610d88565b80356001600160a01b03811681146103f557600080fd5b600082601f830112610dc3578081fd5b813567ffffffffffffffff80821115610dda578283fd5b604051601f8301601f191681016020018281118282101715610dfa578485fd5b604052828152925082848301602001861015610e1557600080fd5b8260208601602083013760006020848301015250505092915050565b600060208284031215610e42578081fd5b610e4c8383610d9c565b9392505050565b60008060408385031215610e65578081fd5b610e6f8484610d9c565b9150610e7e8460208501610d9c565b90509250929050565b600080600060608486031215610e9b578081fd5b8335610ea68161133e565b92506020840135610eb68161133e565b929592945050506040919091013590565b60008060008060808587031215610edc578081fd5b610ee68686610d9c565b9350610ef58660208701610d9c565b925060408501359150606085013567ffffffffffffffff811115610f17578182fd5b610f2387828801610db3565b91505092959194509250565b60008060408385031215610f41578182fd5b610f4b8484610d9c565b915060208301358015158114610f5f578182fd5b809150509250929050565b60008060408385031215610f7c578182fd5b610f868484610d9c565b946020939093013593505050565b600060208284031215610fa5578081fd5b8135610e4c81611356565b600060208284031215610fc1578081fd5b8151610e4c81611356565b600060208284031215610fdd578081fd5b813567ffffffffffffffff811115610ff3578182fd5b610fff84828501610db3565b949350505050565b600060208284031215611018578081fd5b5035919050565b60008151808452815b8181101561104457602081850181015186830182015201611028565b818111156110555782602083870101525b50601f01601f19169290920160200192915050565b90565b6001600160a01b0391909116815260200190565b6001600160a01b03858116825284166020820152604081018390526080606082018190526000906110b49083018461101f565b9695505050505050565b6001600160a01b0394851681529290931660208301526040820152606081019190915260800190565b6001600160a01b039384168152919092166020820152604081019190915260600190565b901515815260200190565b600060208252610e4c602083018461101f565b602080825260159082015274426f72696e674d6174683a20556e646572666c6f7760581b604082015260600190565b60208082526012908201527121b0b73b30b99d103737ba103437b23632b960711b604082015260600190565b602080825260149082015273151c985b9cd9995c881b9bdd08185b1b1bddd95960621b604082015260600190565b6020808252600a90820152692737ba103437b23632b960b11b604082015260600190565b60208082526019908201527f46756e64696e6720706978656c20706f6f6c206661696c656400000000000000604082015260600190565b60208082526012908201527157726f6e672072657475726e2076616c756560701b604082015260600190565b6020808252600e908201526d233937b6903737ba1037bbb732b960911b604082015260600190565b60208082526010908201526f125b9d985b1a59081d1bdad95b88125160821b604082015260600190565b6020808252600f908201526e4e6f207a65726f206164647265737360881b604082015260600190565b60208082526008908201526727379037bbb732b960c11b604082015260600190565b60208082526018908201527f426f72696e674d6174683a204d756c204f766572666c6f770000000000000000604082015260600190565b6020808252600e908201526d56616c756520213d20707269636560901b604082015260600190565b90815260200190565b6001600160a01b038116811461135357600080fd5b50565b6001600160e01b03198116811461135357600080fdfea2646970667358221220ee5017823498aa056c89867a5be92025d3835c73f5cecfdd2c28b58ba94b5a2d64736f6c634300060c0033a26469706673582212207fbc1ee6807f44d369c552f2b283f562cee604df4a29be08aa20110b8d844fad64736f6c634300060c0033",
  "devdoc": {
    "kind": "dev",
    "methods": {
      "approve(address,uint256)": {
        "params": {
          "amount": "The maximum collective amount that `spender` can draw.",
          "spender": "Address of the party that can draw from msg.sender's account."
        },
        "returns": {
          "_0": "(bool) Returns True if approved."
        }
      },
      "batch(bytes[],bool)": {
        "params": {
          "calls": "An array of inputs for each call.",
          "revertOnFail": "If True then reverts after a failed call and stops doing further calls."
        }
      },
      "permit(address,address,uint256,uint256,uint8,bytes32,bytes32)": {
        "params": {
          "deadline": "This permit must be redeemed before this deadline (UTC timestamp in seconds).",
          "owner_": "Address of the owner.",
          "spender": "The address of the spender that gets approved to draw from `owner_`.",
          "value": "The maximum collective amount that `spender` can draw."
        }
      },
      "transfer(address,uint256)": {
        "params": {
          "amount": "of the tokens to move.",
          "to": "The address to move the tokens."
        },
        "returns": {
          "_0": "(bool) Returns True if succeeded."
        }
      },
      "transferFrom(address,address,uint256)": {
        "params": {
          "amount": "The token amount to move.",
          "from": "Address to draw tokens from.",
          "to": "The address to move the tokens."
        },
        "returns": {
          "_0": "(bool) Returns True if succeeded."
        }
      },
      "transferOwnership(address,bool,bool)": {
        "params": {
          "direct": "True if `newOwner` should be set immediately. False if `newOwner` needs to use `claimOwnership`.",
          "newOwner": "Address of the new owner.",
          "renounce": "Allows the `newOwner` to be `address(0)` if `direct` and `renounce` is True. Has no effect otherwise."
        }
      }
    },
    "version": 1
  },
  "userdoc": {
    "kind": "user",
    "methods": {
      "allowance(address,address)": {
        "notice": "owner > spender > allowance mapping."
      },
      "approve(address,uint256)": {
        "notice": "Approves `amount` from sender to be spend by `spender`."
      },
      "balanceOf(address)": {
        "notice": "owner > balance mapping."
      },
      "batch(bytes[],bool)": {
        "notice": "Allows batched call to self (this contract)."
      },
      "claimOwnership()": {
        "notice": "Needs to be called by `pendingOwner` to claim ownership."
      },
      "nonces(address)": {
        "notice": "owner > nonce mapping. Used in `permit`."
      },
      "permit(address,address,uint256,uint256,uint8,bytes32,bytes32)": {
        "notice": "Approves `value` from `owner_` to be spend by `spender`."
      },
      "permitToken(address,address,address,uint256,uint256,uint8,bytes32,bytes32)": {
        "notice": "Call wrapper that performs `ERC20.permit` on `token`. Lookup `IERC20.permit`."
      },
      "transfer(address,uint256)": {
        "notice": "Transfers `amount` tokens from `msg.sender` to `to`."
      },
      "transferFrom(address,address,uint256)": {
        "notice": "Transfers `amount` tokens from `from` to `to`. Caller needs approval for `from`."
      },
      "transferOwnership(address,bool,bool)": {
        "notice": "Transfers ownership to `newOwner`. Either directly or claimable by the new pending owner. Can only be invoked by the current `owner`."
      }
    },
    "version": 1
  },
  "storageLayout": {
    "storage": [
      {
        "astId": 368,
        "contract": "contracts/Pixel.sol:Pixel",
        "label": "balanceOf",
        "offset": 0,
        "slot": "0",
        "type": "t_mapping(t_address,t_uint256)"
      },
      {
        "astId": 376,
        "contract": "contracts/Pixel.sol:Pixel",
        "label": "allowance",
        "offset": 0,
        "slot": "1",
        "type": "t_mapping(t_address,t_mapping(t_address,t_uint256))"
      },
      {
        "astId": 381,
        "contract": "contracts/Pixel.sol:Pixel",
        "label": "nonces",
        "offset": 0,
        "slot": "2",
        "type": "t_mapping(t_address,t_uint256)"
      },
      {
        "astId": 705,
        "contract": "contracts/Pixel.sol:Pixel",
        "label": "totalSupply",
        "offset": 0,
        "slot": "3",
        "type": "t_uint256"
      },
      {
        "astId": 2038,
        "contract": "contracts/Pixel.sol:Pixel",
        "label": "upline",
        "offset": 0,
        "slot": "4",
        "type": "t_mapping(t_address,t_address)"
      },
      {
        "astId": 2042,
        "contract": "contracts/Pixel.sol:Pixel",
        "label": "downline",
        "offset": 0,
        "slot": "5",
        "type": "t_mapping(t_address,t_struct(DownlineStats)2034_storage)"
      },
      {
        "astId": 118,
        "contract": "contracts/Pixel.sol:Pixel",
        "label": "owner",
        "offset": 0,
        "slot": "6",
        "type": "t_address"
      },
      {
        "astId": 120,
        "contract": "contracts/Pixel.sol:Pixel",
        "label": "pendingOwner",
        "offset": 0,
        "slot": "7",
        "type": "t_address"
      },
      {
        "astId": 2333,
        "contract": "contracts/Pixel.sol:Pixel",
        "label": "canvas",
        "offset": 0,
        "slot": "8",
        "type": "t_address"
      },
      {
        "astId": 2366,
        "contract": "contracts/Pixel.sol:Pixel",
        "label": "link",
        "offset": 0,
        "slot": "9",
        "type": "t_array(t_struct(BlockLink)2341_storage)dyn_storage"
      },
      {
        "astId": 2370,
        "contract": "contracts/Pixel.sol:Pixel",
        "label": "blk",
        "offset": 0,
        "slot": "10",
        "type": "t_array(t_struct(Block)2350_storage)10000_storage"
      },
      {
        "astId": 2381,
        "contract": "contracts/Pixel.sol:Pixel",
        "label": "updates",
        "offset": 0,
        "slot": "30010",
        "type": "t_array(t_uint256)dyn_storage"
      }
    ],
    "types": {
      "t_address": {
        "encoding": "inplace",
        "label": "address",
        "numberOfBytes": "20"
      },
      "t_array(t_struct(Block)2350_storage)10000_storage": {
        "base": "t_struct(Block)2350_storage",
        "encoding": "inplace",
        "label": "struct Pixel.Block[10000]",
        "numberOfBytes": "960000"
      },
      "t_array(t_struct(BlockLink)2341_storage)dyn_storage": {
        "base": "t_struct(BlockLink)2341_storage",
        "encoding": "dynamic_array",
        "label": "struct Pixel.BlockLink[]",
        "numberOfBytes": "32"
      },
      "t_array(t_uint256)dyn_storage": {
        "base": "t_uint256",
        "encoding": "dynamic_array",
        "label": "uint256[]",
        "numberOfBytes": "32"
      },
      "t_bytes_storage": {
        "encoding": "bytes",
        "label": "bytes",
        "numberOfBytes": "32"
      },
      "t_mapping(t_address,t_address)": {
        "encoding": "mapping",
        "key": "t_address",
        "label": "mapping(address => address)",
        "numberOfBytes": "32",
        "value": "t_address"
      },
      "t_mapping(t_address,t_mapping(t_address,t_uint256))": {
        "encoding": "mapping",
        "key": "t_address",
        "label": "mapping(address => mapping(address => uint256))",
        "numberOfBytes": "32",
        "value": "t_mapping(t_address,t_uint256)"
      },
      "t_mapping(t_address,t_struct(DownlineStats)2034_storage)": {
        "encoding": "mapping",
        "key": "t_address",
        "label": "mapping(address => struct MLM.DownlineStats)",
        "numberOfBytes": "32",
        "value": "t_struct(DownlineStats)2034_storage"
      },
      "t_mapping(t_address,t_uint256)": {
        "encoding": "mapping",
        "key": "t_address",
        "label": "mapping(address => uint256)",
        "numberOfBytes": "32",
        "value": "t_uint256"
      },
      "t_string_storage": {
        "encoding": "bytes",
        "label": "string",
        "numberOfBytes": "32"
      },
      "t_struct(Block)2350_storage": {
        "encoding": "inplace",
        "label": "struct Pixel.Block",
        "members": [
          {
            "astId": 2343,
            "contract": "contracts/Pixel.sol:Pixel",
            "label": "owner",
            "offset": 0,
            "slot": "0",
            "type": "t_address"
          },
          {
            "astId": 2345,
            "contract": "contracts/Pixel.sol:Pixel",
            "label": "lastPrice",
            "offset": 0,
            "slot": "1",
            "type": "t_uint128"
          },
          {
            "astId": 2347,
            "contract": "contracts/Pixel.sol:Pixel",
            "label": "link",
            "offset": 16,
            "slot": "1",
            "type": "t_uint32"
          },
          {
            "astId": 2349,
            "contract": "contracts/Pixel.sol:Pixel",
            "label": "pixels",
            "offset": 0,
            "slot": "2",
            "type": "t_bytes_storage"
          }
        ],
        "numberOfBytes": "96"
      },
      "t_struct(BlockLink)2341_storage": {
        "encoding": "inplace",
        "label": "struct Pixel.BlockLink",
        "members": [
          {
            "astId": 2338,
            "contract": "contracts/Pixel.sol:Pixel",
            "label": "url",
            "offset": 0,
            "slot": "0",
            "type": "t_string_storage"
          },
          {
            "astId": 2340,
            "contract": "contracts/Pixel.sol:Pixel",
            "label": "description",
            "offset": 0,
            "slot": "1",
            "type": "t_string_storage"
          }
        ],
        "numberOfBytes": "64"
      },
      "t_struct(DownlineStats)2034_storage": {
        "encoding": "inplace",
        "label": "struct MLM.DownlineStats",
        "members": [
          {
            "astId": 2023,
            "contract": "contracts/Pixel.sol:Pixel",
            "label": "earnings1",
            "offset": 0,
            "slot": "0",
            "type": "t_uint128"
          },
          {
            "astId": 2025,
            "contract": "contracts/Pixel.sol:Pixel",
            "label": "earnings2",
            "offset": 16,
            "slot": "0",
            "type": "t_uint128"
          },
          {
            "astId": 2027,
            "contract": "contracts/Pixel.sol:Pixel",
            "label": "earnings3",
            "offset": 0,
            "slot": "1",
            "type": "t_uint128"
          },
          {
            "astId": 2029,
            "contract": "contracts/Pixel.sol:Pixel",
            "label": "tier1",
            "offset": 16,
            "slot": "1",
            "type": "t_uint32"
          },
          {
            "astId": 2031,
            "contract": "contracts/Pixel.sol:Pixel",
            "label": "tier2",
            "offset": 20,
            "slot": "1",
            "type": "t_uint32"
          },
          {
            "astId": 2033,
            "contract": "contracts/Pixel.sol:Pixel",
            "label": "tier3",
            "offset": 24,
            "slot": "1",
            "type": "t_uint32"
          }
        ],
        "numberOfBytes": "64"
      },
      "t_uint128": {
        "encoding": "inplace",
        "label": "uint128",
        "numberOfBytes": "16"
      },
      "t_uint256": {
        "encoding": "inplace",
        "label": "uint256",
        "numberOfBytes": "32"
      },
      "t_uint32": {
        "encoding": "inplace",
        "label": "uint32",
        "numberOfBytes": "4"
      }
    }
  }
}